{
  "_format": "hh-sol-artifact-1",
  "contractName": "AIGeneratedNFT",
  "sourceName": "contracts/AIGeneratedNFT.sol",
  "abi": [
    {
      "inputs": [
        {
          "internalType": "string",
          "name": "uri",
          "type": "string"
        },
        {
          "internalType": "uint256",
          "name": "royaltyFee",
          "type": "uint256"
        }
      ],
      "stateMutability": "nonpayable",
      "type": "constructor"
    },
    {
      "anonymous": false,
      "inputs": [
        {
          "indexed": true,
          "internalType": "address",
          "name": "account",
          "type": "address"
        },
        {
          "indexed": true,
          "internalType": "address",
          "name": "operator",
          "type": "address"
        },
        {
          "indexed": false,
          "internalType": "bool",
          "name": "approved",
          "type": "bool"
        }
      ],
      "name": "ApprovalForAll",
      "type": "event"
    },
    {
      "anonymous": false,
      "inputs": [
        {
          "indexed": false,
          "internalType": "uint256",
          "name": "royaltyFee",
          "type": "uint256"
        }
      ],
      "name": "RoyaltyFeeUpdated",
      "type": "event"
    },
    {
      "anonymous": false,
      "inputs": [
        {
          "indexed": false,
          "internalType": "uint256",
          "name": "tokenId",
          "type": "uint256"
        }
      ],
      "name": "TokenMinted",
      "type": "event"
    },
    {
      "anonymous": false,
      "inputs": [
        {
          "indexed": true,
          "internalType": "address",
          "name": "operator",
          "type": "address"
        },
        {
          "indexed": true,
          "internalType": "address",
          "name": "from",
          "type": "address"
        },
        {
          "indexed": true,
          "internalType": "address",
          "name": "to",
          "type": "address"
        },
        {
          "indexed": false,
          "internalType": "uint256[]",
          "name": "ids",
          "type": "uint256[]"
        },
        {
          "indexed": false,
          "internalType": "uint256[]",
          "name": "values",
          "type": "uint256[]"
        }
      ],
      "name": "TransferBatch",
      "type": "event"
    },
    {
      "anonymous": false,
      "inputs": [
        {
          "indexed": true,
          "internalType": "address",
          "name": "operator",
          "type": "address"
        },
        {
          "indexed": true,
          "internalType": "address",
          "name": "from",
          "type": "address"
        },
        {
          "indexed": true,
          "internalType": "address",
          "name": "to",
          "type": "address"
        },
        {
          "indexed": false,
          "internalType": "uint256",
          "name": "id",
          "type": "uint256"
        },
        {
          "indexed": false,
          "internalType": "uint256",
          "name": "value",
          "type": "uint256"
        }
      ],
      "name": "TransferSingle",
      "type": "event"
    },
    {
      "anonymous": false,
      "inputs": [
        {
          "indexed": false,
          "internalType": "string",
          "name": "value",
          "type": "string"
        },
        {
          "indexed": true,
          "internalType": "uint256",
          "name": "id",
          "type": "uint256"
        }
      ],
      "name": "URI",
      "type": "event"
    },
    {
      "inputs": [
        {
          "internalType": "address",
          "name": "account",
          "type": "address"
        },
        {
          "internalType": "uint256",
          "name": "id",
          "type": "uint256"
        }
      ],
      "name": "balanceOf",
      "outputs": [
        {
          "internalType": "uint256",
          "name": "",
          "type": "uint256"
        }
      ],
      "stateMutability": "view",
      "type": "function"
    },
    {
      "inputs": [
        {
          "internalType": "address[]",
          "name": "accounts",
          "type": "address[]"
        },
        {
          "internalType": "uint256[]",
          "name": "ids",
          "type": "uint256[]"
        }
      ],
      "name": "balanceOfBatch",
      "outputs": [
        {
          "internalType": "uint256[]",
          "name": "",
          "type": "uint256[]"
        }
      ],
      "stateMutability": "view",
      "type": "function"
    },
    {
      "inputs": [
        {
          "internalType": "address",
          "name": "user",
          "type": "address"
        }
      ],
      "name": "getNonce",
      "outputs": [
        {
          "internalType": "uint256",
          "name": "",
          "type": "uint256"
        }
      ],
      "stateMutability": "view",
      "type": "function"
    },
    {
      "inputs": [
        {
          "internalType": "address",
          "name": "account",
          "type": "address"
        },
        {
          "internalType": "address",
          "name": "operator",
          "type": "address"
        }
      ],
      "name": "isApprovedForAll",
      "outputs": [
        {
          "internalType": "bool",
          "name": "",
          "type": "bool"
        }
      ],
      "stateMutability": "view",
      "type": "function"
    },
    {
      "inputs": [
        {
          "internalType": "address",
          "name": "to",
          "type": "address"
        },
        {
          "internalType": "string",
          "name": "tokenURI",
          "type": "string"
        }
      ],
      "name": "mint",
      "outputs": [
        {
          "internalType": "uint256",
          "name": "",
          "type": "uint256"
        }
      ],
      "stateMutability": "nonpayable",
      "type": "function"
    },
    {
      "inputs": [
        {
          "internalType": "address",
          "name": "to",
          "type": "address"
        },
        {
          "internalType": "string",
          "name": "tokenURI",
          "type": "string"
        },
        {
          "internalType": "bytes",
          "name": "signature",
          "type": "bytes"
        },
        {
          "internalType": "uint256",
          "name": "nonce",
          "type": "uint256"
        }
      ],
      "name": "mintWithSignature",
      "outputs": [],
      "stateMutability": "nonpayable",
      "type": "function"
    },
    {
      "inputs": [
        {
          "internalType": "address",
          "name": "",
          "type": "address"
        }
      ],
      "name": "nonces",
      "outputs": [
        {
          "internalType": "uint256",
          "name": "",
          "type": "uint256"
        }
      ],
      "stateMutability": "view",
      "type": "function"
    },
    {
      "inputs": [
        {
          "internalType": "uint256",
          "name": "",
          "type": "uint256"
        },
        {
          "internalType": "uint256",
          "name": "value",
          "type": "uint256"
        }
      ],
      "name": "royaltyInfo",
      "outputs": [
        {
          "internalType": "address",
          "name": "receiver",
          "type": "address"
        },
        {
          "internalType": "uint256",
          "name": "royaltyAmount",
          "type": "uint256"
        }
      ],
      "stateMutability": "view",
      "type": "function"
    },
    {
      "inputs": [
        {
          "internalType": "address",
          "name": "from",
          "type": "address"
        },
        {
          "internalType": "address",
          "name": "to",
          "type": "address"
        },
        {
          "internalType": "uint256[]",
          "name": "ids",
          "type": "uint256[]"
        },
        {
          "internalType": "uint256[]",
          "name": "amounts",
          "type": "uint256[]"
        },
        {
          "internalType": "bytes",
          "name": "data",
          "type": "bytes"
        }
      ],
      "name": "safeBatchTransferFrom",
      "outputs": [],
      "stateMutability": "nonpayable",
      "type": "function"
    },
    {
      "inputs": [
        {
          "internalType": "address",
          "name": "from",
          "type": "address"
        },
        {
          "internalType": "address",
          "name": "to",
          "type": "address"
        },
        {
          "internalType": "uint256",
          "name": "id",
          "type": "uint256"
        },
        {
          "internalType": "uint256",
          "name": "amount",
          "type": "uint256"
        },
        {
          "internalType": "bytes",
          "name": "data",
          "type": "bytes"
        }
      ],
      "name": "safeTransferFrom",
      "outputs": [],
      "stateMutability": "nonpayable",
      "type": "function"
    },
    {
      "inputs": [
        {
          "internalType": "address",
          "name": "operator",
          "type": "address"
        },
        {
          "internalType": "bool",
          "name": "approved",
          "type": "bool"
        }
      ],
      "name": "setApprovalForAll",
      "outputs": [],
      "stateMutability": "nonpayable",
      "type": "function"
    },
    {
      "inputs": [
        {
          "internalType": "uint256",
          "name": "royaltyFee",
          "type": "uint256"
        }
      ],
      "name": "setRoyaltyFee",
      "outputs": [],
      "stateMutability": "nonpayable",
      "type": "function"
    },
    {
      "inputs": [
        {
          "internalType": "bytes4",
          "name": "interfaceId",
          "type": "bytes4"
        }
      ],
      "name": "supportsInterface",
      "outputs": [
        {
          "internalType": "bool",
          "name": "",
          "type": "bool"
        }
      ],
      "stateMutability": "view",
      "type": "function"
    },
    {
      "inputs": [
        {
          "internalType": "uint256",
          "name": "tokenId",
          "type": "uint256"
        }
      ],
      "name": "uri",
      "outputs": [
        {
          "internalType": "string",
          "name": "",
          "type": "string"
        }
      ],
      "stateMutability": "view",
      "type": "function"
    }
  ],
  "bytecode": "0x60806040523480156200001157600080fd5b5060405162004039380380620040398339818101604052810190620000379190620001f7565b816200004981620000a260201b60201c565b5033600360006101000a81548173ffffffffffffffffffffffffffffffffffffffff021916908373ffffffffffffffffffffffffffffffffffffffff1602179055506000600481905550806005819055505050620003e5565b8060029080519060200190620000ba929190620000be565b5050565b828054620000cc90620002f0565b90600052602060002090601f016020900481019282620000f057600085556200013c565b82601f106200010b57805160ff19168380011785556200013c565b828001600101855582156200013c579182015b828111156200013b5782518255916020019190600101906200011e565b5b5090506200014b91906200014f565b5090565b5b808211156200016a57600081600090555060010162000150565b5090565b6000620001856200017f846200027a565b62000251565b9050828152602081018484840111156200019e57600080fd5b620001ab848285620002ba565b509392505050565b600082601f830112620001c557600080fd5b8151620001d78482602086016200016e565b91505092915050565b600081519050620001f181620003cb565b92915050565b600080604083850312156200020b57600080fd5b600083015167ffffffffffffffff8111156200022657600080fd5b6200023485828601620001b3565b92505060206200024785828601620001e0565b9150509250929050565b60006200025d62000270565b90506200026b828262000326565b919050565b6000604051905090565b600067ffffffffffffffff8211156200029857620002976200038b565b5b620002a382620003ba565b9050602081019050919050565b6000819050919050565b60005b83811015620002da578082015181840152602081019050620002bd565b83811115620002ea576000848401525b50505050565b600060028204905060018216806200030957607f821691505b6020821081141562000320576200031f6200035c565b5b50919050565b6200033182620003ba565b810181811067ffffffffffffffff821117156200035357620003526200038b565b5b80604052505050565b7f4e487b7100000000000000000000000000000000000000000000000000000000600052602260045260246000fd5b7f4e487b7100000000000000000000000000000000000000000000000000000000600052604160045260246000fd5b6000601f19601f8301169050919050565b620003d681620002b0565b8114620003e257600080fd5b50565b613c4480620003f56000396000f3fe608060405234801561001057600080fd5b50600436106100e95760003560e01c80634e1273f41161008c578063a22cb46511610066578063a22cb46514610293578063d0def521146102af578063e985e9c5146102df578063f242432a1461030f576100e9565b80634e1273f4146102175780637e66e17c146102475780637ecebe0014610263576100e9565b80632a55205a116100c85780632a55205a1461017e5780632d0335ab146101af5780632eb2c2d6146101df5780633e4086e5146101fb576100e9565b8062fdd58e146100ee57806301ffc9a71461011e5780630e89341c1461014e575b600080fd5b61010860048036038101906101039190612709565b61032b565b60405161011591906130ec565b60405180910390f35b610138600480360381019061013391906127b1565b6103f4565b6040516101459190612e4a565b60405180910390f35b61016860048036038101906101639190612803565b6104d6565b6040516101759190612eaa565b60405180910390f35b6101986004803603810190610193919061282c565b6105c3565b6040516101a6929190612dc8565b60405180910390f35b6101c960048036038101906101c49190612433565b61060f565b6040516101d691906130ec565b60405180910390f35b6101f960048036038101906101f49190612498565b610658565b005b61021560048036038101906102109190612803565b6106f9565b005b610231600480360381019061022c9190612745565b6107ca565b60405161023e9190612df1565b60405180910390f35b610261600480360381019061025c9190612676565b61097b565b005b61027d60048036038101906102789190612433565b610b41565b60405161028a91906130ec565b60405180910390f35b6102ad60048036038101906102a891906125e6565b610b59565b005b6102c960048036038101906102c49190612622565b610b6f565b6040516102d691906130ec565b60405180910390f35b6102f960048036038101906102f4919061245c565b610cff565b6040516103069190612e4a565b60405180910390f35b61032960048036038101906103249190612557565b610d93565b005b60008073ffffffffffffffffffffffffffffffffffffffff168373ffffffffffffffffffffffffffffffffffffffff16141561039c576040517f08c379a000000000000000000000000000000000000000000000000000000000815260040161039390612f6c565b60405180910390fd5b60008083815260200190815260200160002060008473ffffffffffffffffffffffffffffffffffffffff1673ffffffffffffffffffffffffffffffffffffffff16815260200190815260200160002054905092915050565b60007fd9b67a26000000000000000000000000000000000000000000000000000000007bffffffffffffffffffffffffffffffffffffffffffffffffffffffff1916827bffffffffffffffffffffffffffffffffffffffffffffffffffffffff191614806104bf57507f0e89341c000000000000000000000000000000000000000000000000000000007bffffffffffffffffffffffffffffffffffffffffffffffffffffffff1916827bffffffffffffffffffffffffffffffffffffffffffffffffffffffff1916145b806104cf57506104ce82610e34565b5b9050919050565b60606104e182610e9e565b610520576040517f08c379a000000000000000000000000000000000000000000000000000000000815260040161051790612f4c565b60405180910390fd5b60076000838152602001908152602001600020805461053e90613439565b80601f016020809104026020016040519081016040528092919081815260200182805461056a90613439565b80156105b75780601f1061058c576101008083540402835291602001916105b7565b820191906000526020600020905b81548152906001019060200180831161059a57829003601f168201915b50505050509050919050565b600080600360009054906101000a900473ffffffffffffffffffffffffffffffffffffffff169150612710600554846105fc9190613312565b61060691906132e1565b90509250929050565b6000600860008373ffffffffffffffffffffffffffffffffffffffff1673ffffffffffffffffffffffffffffffffffffffff168152602001908152602001600020549050919050565b610660610f0a565b73ffffffffffffffffffffffffffffffffffffffff168573ffffffffffffffffffffffffffffffffffffffff1614806106a657506106a5856106a0610f0a565b610cff565b5b6106e5576040517f08c379a00000000000000000000000000000000000000000000000000000000081526004016106dc90612f8c565b60405180910390fd5b6106f28585858585610f12565b5050505050565b600360009054906101000a900473ffffffffffffffffffffffffffffffffffffffff1673ffffffffffffffffffffffffffffffffffffffff163373ffffffffffffffffffffffffffffffffffffffff1614610789576040517f08c379a000000000000000000000000000000000000000000000000000000000815260040161078090612fec565b60405180910390fd5b806005819055507fd9b587d0d884e97b8e3772325d18ffc0412781f43cb5471b8eb5972667724f01816040516107bf91906130ec565b60405180910390a150565b60608151835114610810576040517f08c379a00000000000000000000000000000000000000000000000000000000081526004016108079061306c565b60405180910390fd5b6000835167ffffffffffffffff811115610853577f4e487b7100000000000000000000000000000000000000000000000000000000600052604160045260246000fd5b6040519080825280602002602001820160405280156108815781602001602082028036833780820191505090505b50905060005b84518110156109705761091a8582815181106108cc577f4e487b7100000000000000000000000000000000000000000000000000000000600052603260045260246000fd5b602002602001015185838151811061090d577f4e487b7100000000000000000000000000000000000000000000000000000000600052603260045260246000fd5b602002602001015161032b565b828281518110610953577f4e487b7100000000000000000000000000000000000000000000000000000000600052603260045260246000fd5b602002602001018181525050806109699061349c565b9050610887565b508091505092915050565b6000848483306040516020016109949493929190612c96565b60405160208183030381529060405280519060200120905060006109b782611280565b905060006109c582866112b0565b9050600360009054906101000a900473ffffffffffffffffffffffffffffffffffffffff1673ffffffffffffffffffffffffffffffffffffffff168173ffffffffffffffffffffffffffffffffffffffff1614610a57576040517f08c379a0000000000000000000000000000000000000000000000000000000008152600401610a4e90612f2c565b60405180910390fd5b83600860008973ffffffffffffffffffffffffffffffffffffffff1673ffffffffffffffffffffffffffffffffffffffff1681526020019081526020016000205414610ad8576040517f08c379a0000000000000000000000000000000000000000000000000000000008152600401610acf9061302c565b60405180910390fd5b610ae28787610b6f565b50600860008873ffffffffffffffffffffffffffffffffffffffff1673ffffffffffffffffffffffffffffffffffffffff1681526020019081526020016000206000815480929190610b339061349c565b919050555050505050505050565b60086020528060005260406000206000915090505481565b610b6b610b64610f0a565b83836112d7565b5050565b6000600360009054906101000a900473ffffffffffffffffffffffffffffffffffffffff1673ffffffffffffffffffffffffffffffffffffffff163373ffffffffffffffffffffffffffffffffffffffff1614610c01576040517f08c379a0000000000000000000000000000000000000000000000000000000008152600401610bf890612fec565b60405180910390fd5b600060045490506000604051806020016040528060008152509050610c298583600184611444565b336006600084815260200190815260200160002060006101000a81548173ffffffffffffffffffffffffffffffffffffffff021916908373ffffffffffffffffffffffffffffffffffffffff16021790555083600760008481526020019081526020016000209080519060200190610ca292919061212b565b50600160046000828254610cb6919061328b565b925050819055507ff00d28232b285f24f2e38415deb2ceb31069e70d4505838b3911b4f02058502e82604051610cec91906130ec565b60405180910390a1819250505092915050565b6000600160008473ffffffffffffffffffffffffffffffffffffffff1673ffffffffffffffffffffffffffffffffffffffff16815260200190815260200160002060008373ffffffffffffffffffffffffffffffffffffffff1673ffffffffffffffffffffffffffffffffffffffff16815260200190815260200160002060009054906101000a900460ff16905092915050565b610d9b610f0a565b73ffffffffffffffffffffffffffffffffffffffff168573ffffffffffffffffffffffffffffffffffffffff161480610de15750610de085610ddb610f0a565b610cff565b5b610e20576040517f08c379a0000000000000000000000000000000000000000000000000000000008152600401610e1790612f8c565b60405180910390fd5b610e2d85858585856115f5565b5050505050565b60007f01ffc9a7000000000000000000000000000000000000000000000000000000007bffffffffffffffffffffffffffffffffffffffffffffffffffffffff1916827bffffffffffffffffffffffffffffffffffffffffffffffffffffffff1916149050919050565b60008073ffffffffffffffffffffffffffffffffffffffff166006600084815260200190815260200160002060009054906101000a900473ffffffffffffffffffffffffffffffffffffffff1673ffffffffffffffffffffffffffffffffffffffff1614159050919050565b600033905090565b8151835114610f56576040517f08c379a0000000000000000000000000000000000000000000000000000000008152600401610f4d9061308c565b60405180910390fd5b600073ffffffffffffffffffffffffffffffffffffffff168473ffffffffffffffffffffffffffffffffffffffff161415610fc6576040517f08c379a0000000000000000000000000000000000000000000000000000000008152600401610fbd90612fcc565b60405180910390fd5b6000610fd0610f0a565b9050610fe0818787878787611891565b60005b84518110156111dd576000858281518110611027577f4e487b7100000000000000000000000000000000000000000000000000000000600052603260045260246000fd5b60200260200101519050600085838151811061106c577f4e487b7100000000000000000000000000000000000000000000000000000000600052603260045260246000fd5b60200260200101519050600080600084815260200190815260200160002060008b73ffffffffffffffffffffffffffffffffffffffff1673ffffffffffffffffffffffffffffffffffffffff1681526020019081526020016000205490508181101561110d576040517f08c379a00000000000000000000000000000000000000000000000000000000081526004016111049061300c565b60405180910390fd5b81810360008085815260200190815260200160002060008c73ffffffffffffffffffffffffffffffffffffffff1673ffffffffffffffffffffffffffffffffffffffff168152602001908152602001600020819055508160008085815260200190815260200160002060008b73ffffffffffffffffffffffffffffffffffffffff1673ffffffffffffffffffffffffffffffffffffffff16815260200190815260200160002060008282546111c2919061328b565b92505081905550505050806111d69061349c565b9050610fe3565b508473ffffffffffffffffffffffffffffffffffffffff168673ffffffffffffffffffffffffffffffffffffffff168273ffffffffffffffffffffffffffffffffffffffff167f4a39dc06d4c0dbc64b70af90fd698a233a518aa5d07e595d983b8c0526c8f7fb8787604051611254929190612e13565b60405180910390a461126a818787878787611899565b6112788187878787876118a1565b505050505050565b6000816040516020016112939190612ce0565b604051602081830303815290604052805190602001209050919050565b60008060006112bf8585611a88565b915091506112cc81611ada565b819250505092915050565b8173ffffffffffffffffffffffffffffffffffffffff168373ffffffffffffffffffffffffffffffffffffffff161415611346576040517f08c379a000000000000000000000000000000000000000000000000000000000815260040161133d9061304c565b60405180910390fd5b80600160008573ffffffffffffffffffffffffffffffffffffffff1673ffffffffffffffffffffffffffffffffffffffff16815260200190815260200160002060008473ffffffffffffffffffffffffffffffffffffffff1673ffffffffffffffffffffffffffffffffffffffff16815260200190815260200160002060006101000a81548160ff0219169083151502179055508173ffffffffffffffffffffffffffffffffffffffff168373ffffffffffffffffffffffffffffffffffffffff167f17307eab39ab6107e8899845ad3d59bd9653f200f220920489ca2b5937696c31836040516114379190612e4a565b60405180910390a3505050565b600073ffffffffffffffffffffffffffffffffffffffff168473ffffffffffffffffffffffffffffffffffffffff1614156114b4576040517f08c379a00000000000000000000000000000000000000000000000000000000081526004016114ab906130ac565b60405180910390fd5b60006114be610f0a565b905060006114cb85611d78565b905060006114d885611d78565b90506114e983600089858589611891565b8460008088815260200190815260200160002060008973ffffffffffffffffffffffffffffffffffffffff1673ffffffffffffffffffffffffffffffffffffffff1681526020019081526020016000206000828254611548919061328b565b925050819055508673ffffffffffffffffffffffffffffffffffffffff16600073ffffffffffffffffffffffffffffffffffffffff168473ffffffffffffffffffffffffffffffffffffffff167fc3d58168c5ae7397731d063d5bbf3d657854427343f4c083240f7aacaa2d0f6289896040516115c6929190613107565b60405180910390a46115dd83600089858589611899565b6115ec83600089898989611e3e565b50505050505050565b600073ffffffffffffffffffffffffffffffffffffffff168473ffffffffffffffffffffffffffffffffffffffff161415611665576040517f08c379a000000000000000000000000000000000000000000000000000000000815260040161165c90612fcc565b60405180910390fd5b600061166f610f0a565b9050600061167c85611d78565b9050600061168985611d78565b9050611699838989858589611891565b600080600088815260200190815260200160002060008a73ffffffffffffffffffffffffffffffffffffffff1673ffffffffffffffffffffffffffffffffffffffff16815260200190815260200160002054905085811015611730576040517f08c379a00000000000000000000000000000000000000000000000000000000081526004016117279061300c565b60405180910390fd5b85810360008089815260200190815260200160002060008b73ffffffffffffffffffffffffffffffffffffffff1673ffffffffffffffffffffffffffffffffffffffff168152602001908152602001600020819055508560008089815260200190815260200160002060008a73ffffffffffffffffffffffffffffffffffffffff1673ffffffffffffffffffffffffffffffffffffffff16815260200190815260200160002060008282546117e5919061328b565b925050819055508773ffffffffffffffffffffffffffffffffffffffff168973ffffffffffffffffffffffffffffffffffffffff168573ffffffffffffffffffffffffffffffffffffffff167fc3d58168c5ae7397731d063d5bbf3d657854427343f4c083240f7aacaa2d0f628a8a604051611862929190613107565b60405180910390a4611878848a8a86868a611899565b611886848a8a8a8a8a611e3e565b505050505050505050565b505050505050565b505050505050565b6118c08473ffffffffffffffffffffffffffffffffffffffff16612025565b15611a80578373ffffffffffffffffffffffffffffffffffffffff1663bc197c8187878686866040518663ffffffff1660e01b8152600401611906959493929190612d06565b602060405180830381600087803b15801561192057600080fd5b505af192505050801561195157506040513d601f19601f8201168201806040525081019061194e91906127da565b60015b6119f75761195d6135d9565b806308c379a014156119ba5750611972613b1c565b8061197d57506119bc565b806040517f08c379a00000000000000000000000000000000000000000000000000000000081526004016119b19190612eaa565b60405180910390fd5b505b6040517f08c379a00000000000000000000000000000000000000000000000000000000081526004016119ee906130cc565b60405180910390fd5b63bc197c8160e01b7bffffffffffffffffffffffffffffffffffffffffffffffffffffffff1916817bffffffffffffffffffffffffffffffffffffffffffffffffffffffff191614611a7e576040517f08c379a0000000000000000000000000000000000000000000000000000000008152600401611a7590612eec565b60405180910390fd5b505b505050505050565b600080604183511415611aca5760008060006020860151925060408601519150606086015160001a9050611abe87828585612048565b94509450505050611ad3565b60006002915091505b9250929050565b60006004811115611b14577f4e487b7100000000000000000000000000000000000000000000000000000000600052602160045260246000fd5b816004811115611b4d577f4e487b7100000000000000000000000000000000000000000000000000000000600052602160045260246000fd5b1415611b5857611d75565b60016004811115611b92577f4e487b7100000000000000000000000000000000000000000000000000000000600052602160045260246000fd5b816004811115611bcb577f4e487b7100000000000000000000000000000000000000000000000000000000600052602160045260246000fd5b1415611c0c576040517f08c379a0000000000000000000000000000000000000000000000000000000008152600401611c0390612ecc565b60405180910390fd5b60026004811115611c46577f4e487b7100000000000000000000000000000000000000000000000000000000600052602160045260246000fd5b816004811115611c7f577f4e487b7100000000000000000000000000000000000000000000000000000000600052602160045260246000fd5b1415611cc0576040517f08c379a0000000000000000000000000000000000000000000000000000000008152600401611cb790612f0c565b60405180910390fd5b60036004811115611cfa577f4e487b7100000000000000000000000000000000000000000000000000000000600052602160045260246000fd5b816004811115611d33577f4e487b7100000000000000000000000000000000000000000000000000000000600052602160045260246000fd5b1415611d74576040517f08c379a0000000000000000000000000000000000000000000000000000000008152600401611d6b90612fac565b60405180910390fd5b5b50565b60606000600167ffffffffffffffff811115611dbd577f4e487b7100000000000000000000000000000000000000000000000000000000600052604160045260246000fd5b604051908082528060200260200182016040528015611deb5781602001602082028036833780820191505090505b5090508281600081518110611e29577f4e487b7100000000000000000000000000000000000000000000000000000000600052603260045260246000fd5b60200260200101818152505080915050919050565b611e5d8473ffffffffffffffffffffffffffffffffffffffff16612025565b1561201d578373ffffffffffffffffffffffffffffffffffffffff1663f23a6e6187878686866040518663ffffffff1660e01b8152600401611ea3959493929190612d6e565b602060405180830381600087803b158015611ebd57600080fd5b505af1925050508015611eee57506040513d601f19601f82011682018060405250810190611eeb91906127da565b60015b611f9457611efa6135d9565b806308c379a01415611f575750611f0f613b1c565b80611f1a5750611f59565b806040517f08c379a0000000000000000000000000000000000000000000000000000000008152600401611f4e9190612eaa565b60405180910390fd5b505b6040517f08c379a0000000000000000000000000000000000000000000000000000000008152600401611f8b906130cc565b60405180910390fd5b63f23a6e6160e01b7bffffffffffffffffffffffffffffffffffffffffffffffffffffffff1916817bffffffffffffffffffffffffffffffffffffffffffffffffffffffff19161461201b576040517f08c379a000000000000000000000000000000000000000000000000000000000815260040161201290612eec565b60405180910390fd5b505b505050505050565b6000808273ffffffffffffffffffffffffffffffffffffffff163b119050919050565b6000807f7fffffffffffffffffffffffffffffff5d576e7357a4501ddfe92f46681b20a08360001c1115612083576000600391509150612122565b6000600187878787604051600081526020016040526040516120a89493929190612e65565b6020604051602081039080840390855afa1580156120ca573d6000803e3d6000fd5b505050602060405103519050600073ffffffffffffffffffffffffffffffffffffffff168173ffffffffffffffffffffffffffffffffffffffff16141561211957600060019250925050612122565b80600092509250505b94509492505050565b82805461213790613439565b90600052602060002090601f01602090048101928261215957600085556121a0565b82601f1061217257805160ff19168380011785556121a0565b828001600101855582156121a0579182015b8281111561219f578251825591602001919060010190612184565b5b5090506121ad91906121b1565b5090565b5b808211156121ca5760008160009055506001016121b2565b5090565b60006121e16121dc84613155565b613130565b9050808382526020820190508285602086028201111561220057600080fd5b60005b8581101561223057816122168882612322565b845260208401935060208301925050600181019050612203565b5050509392505050565b600061224d61224884613181565b613130565b9050808382526020820190508285602086028201111561226c57600080fd5b60005b8581101561229c5781612282888261241e565b84526020840193506020830192505060018101905061226f565b5050509392505050565b60006122b96122b4846131ad565b613130565b9050828152602081018484840111156122d157600080fd5b6122dc8482856133f7565b509392505050565b60006122f76122f2846131de565b613130565b90508281526020810184848401111561230f57600080fd5b61231a8482856133f7565b509392505050565b60008135905061233181613bb2565b92915050565b600082601f83011261234857600080fd5b81356123588482602086016121ce565b91505092915050565b600082601f83011261237257600080fd5b813561238284826020860161223a565b91505092915050565b60008135905061239a81613bc9565b92915050565b6000813590506123af81613be0565b92915050565b6000815190506123c481613be0565b92915050565b600082601f8301126123db57600080fd5b81356123eb8482602086016122a6565b91505092915050565b600082601f83011261240557600080fd5b81356124158482602086016122e4565b91505092915050565b60008135905061242d81613bf7565b92915050565b60006020828403121561244557600080fd5b600061245384828501612322565b91505092915050565b6000806040838503121561246f57600080fd5b600061247d85828601612322565b925050602061248e85828601612322565b9150509250929050565b600080600080600060a086880312156124b057600080fd5b60006124be88828901612322565b95505060206124cf88828901612322565b945050604086013567ffffffffffffffff8111156124ec57600080fd5b6124f888828901612361565b935050606086013567ffffffffffffffff81111561251557600080fd5b61252188828901612361565b925050608086013567ffffffffffffffff81111561253e57600080fd5b61254a888289016123ca565b9150509295509295909350565b600080600080600060a0868803121561256f57600080fd5b600061257d88828901612322565b955050602061258e88828901612322565b945050604061259f8882890161241e565b93505060606125b08882890161241e565b925050608086013567ffffffffffffffff8111156125cd57600080fd5b6125d9888289016123ca565b9150509295509295909350565b600080604083850312156125f957600080fd5b600061260785828601612322565b92505060206126188582860161238b565b9150509250929050565b6000806040838503121561263557600080fd5b600061264385828601612322565b925050602083013567ffffffffffffffff81111561266057600080fd5b61266c858286016123f4565b9150509250929050565b6000806000806080858703121561268c57600080fd5b600061269a87828801612322565b945050602085013567ffffffffffffffff8111156126b757600080fd5b6126c3878288016123f4565b935050604085013567ffffffffffffffff8111156126e057600080fd5b6126ec878288016123ca565b92505060606126fd8782880161241e565b91505092959194509250565b6000806040838503121561271c57600080fd5b600061272a85828601612322565b925050602061273b8582860161241e565b9150509250929050565b6000806040838503121561275857600080fd5b600083013567ffffffffffffffff81111561277257600080fd5b61277e85828601612337565b925050602083013567ffffffffffffffff81111561279b57600080fd5b6127a785828601612361565b9150509250929050565b6000602082840312156127c357600080fd5b60006127d1848285016123a0565b91505092915050565b6000602082840312156127ec57600080fd5b60006127fa848285016123b5565b91505092915050565b60006020828403121561281557600080fd5b60006128238482850161241e565b91505092915050565b6000806040838503121561283f57600080fd5b600061284d8582860161241e565b925050602061285e8582860161241e565b9150509250929050565b60006128748383612c52565b60208301905092915050565b6128898161336c565b82525050565b6128a061289b8261336c565b6134e5565b82525050565b60006128b18261321f565b6128bb818561324d565b93506128c68361320f565b8060005b838110156128f75781516128de8882612868565b97506128e983613240565b9250506001810190506128ca565b5085935050505092915050565b61290d8161337e565b82525050565b61291c8161338a565b82525050565b61293361292e8261338a565b6134f7565b82525050565b60006129448261322a565b61294e818561325e565b935061295e818560208601613406565b612967816135fb565b840191505092915050565b600061297d82613235565b612987818561326f565b9350612997818560208601613406565b6129a0816135fb565b840191505092915050565b60006129b682613235565b6129c08185613280565b93506129d0818560208601613406565b80840191505092915050565b60006129e960188361326f565b91506129f482613626565b602082019050919050565b6000612a0c60288361326f565b9150612a178261364f565b604082019050919050565b6000612a2f601f8361326f565b9150612a3a8261369e565b602082019050919050565b6000612a52601c83613280565b9150612a5d826136c7565b601c82019050919050565b6000612a7560218361326f565b9150612a80826136f0565b604082019050919050565b6000612a98602f8361326f565b9150612aa38261373f565b604082019050919050565b6000612abb602a8361326f565b9150612ac68261378e565b604082019050919050565b6000612ade602e8361326f565b9150612ae9826137dd565b604082019050919050565b6000612b0160228361326f565b9150612b0c8261382c565b604082019050919050565b6000612b2460258361326f565b9150612b2f8261387b565b604082019050919050565b6000612b47603f8361326f565b9150612b52826138ca565b604082019050919050565b6000612b6a602a8361326f565b9150612b7582613919565b604082019050919050565b6000612b8d601d8361326f565b9150612b9882613968565b602082019050919050565b6000612bb060298361326f565b9150612bbb82613991565b604082019050919050565b6000612bd360298361326f565b9150612bde826139e0565b604082019050919050565b6000612bf660288361326f565b9150612c0182613a2f565b604082019050919050565b6000612c1960218361326f565b9150612c2482613a7e565b604082019050919050565b6000612c3c60348361326f565b9150612c4782613acd565b604082019050919050565b612c5b816133e0565b82525050565b612c6a816133e0565b82525050565b612c81612c7c826133e0565b613513565b82525050565b612c90816133ea565b82525050565b6000612ca2828761288f565b601482019150612cb282866129ab565b9150612cbe8285612c70565b602082019150612cce828461288f565b60148201915081905095945050505050565b6000612ceb82612a45565b9150612cf78284612922565b60208201915081905092915050565b600060a082019050612d1b6000830188612880565b612d286020830187612880565b8181036040830152612d3a81866128a6565b90508181036060830152612d4e81856128a6565b90508181036080830152612d628184612939565b90509695505050505050565b600060a082019050612d836000830188612880565b612d906020830187612880565b612d9d6040830186612c61565b612daa6060830185612c61565b8181036080830152612dbc8184612939565b90509695505050505050565b6000604082019050612ddd6000830185612880565b612dea6020830184612c61565b9392505050565b60006020820190508181036000830152612e0b81846128a6565b905092915050565b60006040820190508181036000830152612e2d81856128a6565b90508181036020830152612e4181846128a6565b90509392505050565b6000602082019050612e5f6000830184612904565b92915050565b6000608082019050612e7a6000830187612913565b612e876020830186612c87565b612e946040830185612913565b612ea16060830184612913565b95945050505050565b60006020820190508181036000830152612ec48184612972565b905092915050565b60006020820190508181036000830152612ee5816129dc565b9050919050565b60006020820190508181036000830152612f05816129ff565b9050919050565b60006020820190508181036000830152612f2581612a22565b9050919050565b60006020820190508181036000830152612f4581612a68565b9050919050565b60006020820190508181036000830152612f6581612a8b565b9050919050565b60006020820190508181036000830152612f8581612aae565b9050919050565b60006020820190508181036000830152612fa581612ad1565b9050919050565b60006020820190508181036000830152612fc581612af4565b9050919050565b60006020820190508181036000830152612fe581612b17565b9050919050565b6000602082019050818103600083015261300581612b3a565b9050919050565b6000602082019050818103600083015261302581612b5d565b9050919050565b6000602082019050818103600083015261304581612b80565b9050919050565b6000602082019050818103600083015261306581612ba3565b9050919050565b6000602082019050818103600083015261308581612bc6565b9050919050565b600060208201905081810360008301526130a581612be9565b9050919050565b600060208201905081810360008301526130c581612c0c565b9050919050565b600060208201905081810360008301526130e581612c2f565b9050919050565b60006020820190506131016000830184612c61565b92915050565b600060408201905061311c6000830185612c61565b6131296020830184612c61565b9392505050565b600061313a61314b565b9050613146828261346b565b919050565b6000604051905090565b600067ffffffffffffffff8211156131705761316f6135aa565b5b602082029050602081019050919050565b600067ffffffffffffffff82111561319c5761319b6135aa565b5b602082029050602081019050919050565b600067ffffffffffffffff8211156131c8576131c76135aa565b5b6131d1826135fb565b9050602081019050919050565b600067ffffffffffffffff8211156131f9576131f86135aa565b5b613202826135fb565b9050602081019050919050565b6000819050602082019050919050565b600081519050919050565b600081519050919050565b600081519050919050565b6000602082019050919050565b600082825260208201905092915050565b600082825260208201905092915050565b600082825260208201905092915050565b600081905092915050565b6000613296826133e0565b91506132a1836133e0565b9250827fffffffffffffffffffffffffffffffffffffffffffffffffffffffffffffffff038211156132d6576132d561351d565b5b828201905092915050565b60006132ec826133e0565b91506132f7836133e0565b9250826133075761330661354c565b5b828204905092915050565b600061331d826133e0565b9150613328836133e0565b9250817fffffffffffffffffffffffffffffffffffffffffffffffffffffffffffffffff04831182151516156133615761336061351d565b5b828202905092915050565b6000613377826133c0565b9050919050565b60008115159050919050565b6000819050919050565b60007fffffffff0000000000000000000000000000000000000000000000000000000082169050919050565b600073ffffffffffffffffffffffffffffffffffffffff82169050919050565b6000819050919050565b600060ff82169050919050565b82818337600083830152505050565b60005b83811015613424578082015181840152602081019050613409565b83811115613433576000848401525b50505050565b6000600282049050600182168061345157607f821691505b602082108114156134655761346461357b565b5b50919050565b613474826135fb565b810181811067ffffffffffffffff82111715613493576134926135aa565b5b80604052505050565b60006134a7826133e0565b91507fffffffffffffffffffffffffffffffffffffffffffffffffffffffffffffffff8214156134da576134d961351d565b5b600182019050919050565b60006134f082613501565b9050919050565b6000819050919050565b600061350c8261360c565b9050919050565b6000819050919050565b7f4e487b7100000000000000000000000000000000000000000000000000000000600052601160045260246000fd5b7f4e487b7100000000000000000000000000000000000000000000000000000000600052601260045260246000fd5b7f4e487b7100000000000000000000000000000000000000000000000000000000600052602260045260246000fd5b7f4e487b7100000000000000000000000000000000000000000000000000000000600052604160045260246000fd5b600060033d11156135f85760046000803e6135f5600051613619565b90505b90565b6000601f19601f8301169050919050565b60008160601b9050919050565b60008160e01c9050919050565b7f45434453413a20696e76616c6964207369676e61747572650000000000000000600082015250565b7f455243313135353a204552433131353552656365697665722072656a6563746560008201527f6420746f6b656e73000000000000000000000000000000000000000000000000602082015250565b7f45434453413a20696e76616c6964207369676e6174757265206c656e67746800600082015250565b7f19457468657265756d205369676e6564204d6573736167653a0a333200000000600082015250565b7f414947656e6572617465644e46543a20496e76616c6964207369676e6174757260008201527f6500000000000000000000000000000000000000000000000000000000000000602082015250565b7f414947656e6572617465644e46543a2055524920717565727920666f72206e6f60008201527f6e6578697374656e7420746f6b656e0000000000000000000000000000000000602082015250565b7f455243313135353a2061646472657373207a65726f206973206e6f742061207660008201527f616c6964206f776e657200000000000000000000000000000000000000000000602082015250565b7f455243313135353a2063616c6c6572206973206e6f7420746f6b656e206f776e60008201527f6572206f7220617070726f766564000000000000000000000000000000000000602082015250565b7f45434453413a20696e76616c6964207369676e6174757265202773272076616c60008201527f7565000000000000000000000000000000000000000000000000000000000000602082015250565b7f455243313135353a207472616e7366657220746f20746865207a65726f20616460008201527f6472657373000000000000000000000000000000000000000000000000000000602082015250565b7f414947656e6572617465644e46543a204f6e6c792074686520636f6e7472616360008201527f74206f776e65722063616e2063616c6c20746869732066756e6374696f6e2e00602082015250565b7f455243313135353a20696e73756666696369656e742062616c616e636520666f60008201527f72207472616e7366657200000000000000000000000000000000000000000000602082015250565b7f414947656e6572617465644e46543a20496e76616c6964206e6f6e6365000000600082015250565b7f455243313135353a2073657474696e6720617070726f76616c2073746174757360008201527f20666f722073656c660000000000000000000000000000000000000000000000602082015250565b7f455243313135353a206163636f756e747320616e6420696473206c656e67746860008201527f206d69736d617463680000000000000000000000000000000000000000000000602082015250565b7f455243313135353a2069647320616e6420616d6f756e7473206c656e6774682060008201527f6d69736d61746368000000000000000000000000000000000000000000000000602082015250565b7f455243313135353a206d696e7420746f20746865207a65726f2061646472657360008201527f7300000000000000000000000000000000000000000000000000000000000000602082015250565b7f455243313135353a207472616e7366657220746f206e6f6e2d4552433131353560008201527f526563656976657220696d706c656d656e746572000000000000000000000000602082015250565b600060443d1015613b2c57613baf565b613b3461314b565b60043d036004823e80513d602482011167ffffffffffffffff82111715613b5c575050613baf565b808201805167ffffffffffffffff811115613b7a5750505050613baf565b80602083010160043d038501811115613b97575050505050613baf565b613ba68260200185018661346b565b82955050505050505b90565b613bbb8161336c565b8114613bc657600080fd5b50565b613bd28161337e565b8114613bdd57600080fd5b50565b613be981613394565b8114613bf457600080fd5b50565b613c00816133e0565b8114613c0b57600080fd5b5056fea26469706673582212204e41e4dce1bceb44ff421b48835173a9ce114666048dd8b22008bd2ac397848564736f6c63430008010033",
  "linkReferences": {},
  "deployedLinkReferences": {}
}