{
  "_format": "hh-sol-artifact-1",
  "contractName": "AIGeneratedNFT",
  "sourceName": "contracts/AIGeneratedNFT.sol",
  "abi": [
    {
      "inputs": [
        {
          "internalType": "string",
          "name": "uri",
          "type": "string"
        },
        {
          "internalType": "uint256",
          "name": "royaltyFee",
          "type": "uint256"
        }
      ],
      "stateMutability": "nonpayable",
      "type": "constructor"
    },
    {
      "anonymous": false,
      "inputs": [
        {
          "indexed": true,
          "internalType": "address",
          "name": "account",
          "type": "address"
        },
        {
          "indexed": true,
          "internalType": "address",
          "name": "operator",
          "type": "address"
        },
        {
          "indexed": false,
          "internalType": "bool",
          "name": "approved",
          "type": "bool"
        }
      ],
      "name": "ApprovalForAll",
      "type": "event"
    },
    {
      "anonymous": false,
      "inputs": [
        {
          "indexed": false,
          "internalType": "uint256",
          "name": "royaltyFee",
          "type": "uint256"
        }
      ],
      "name": "RoyaltyFeeUpdated",
      "type": "event"
    },
    {
      "anonymous": false,
      "inputs": [
        {
          "indexed": false,
          "internalType": "uint256",
          "name": "tokenId",
          "type": "uint256"
        }
      ],
      "name": "TokenMinted",
      "type": "event"
    },
    {
      "anonymous": false,
      "inputs": [
        {
          "indexed": true,
          "internalType": "address",
          "name": "operator",
          "type": "address"
        },
        {
          "indexed": true,
          "internalType": "address",
          "name": "from",
          "type": "address"
        },
        {
          "indexed": true,
          "internalType": "address",
          "name": "to",
          "type": "address"
        },
        {
          "indexed": false,
          "internalType": "uint256[]",
          "name": "ids",
          "type": "uint256[]"
        },
        {
          "indexed": false,
          "internalType": "uint256[]",
          "name": "values",
          "type": "uint256[]"
        }
      ],
      "name": "TransferBatch",
      "type": "event"
    },
    {
      "anonymous": false,
      "inputs": [
        {
          "indexed": true,
          "internalType": "address",
          "name": "operator",
          "type": "address"
        },
        {
          "indexed": true,
          "internalType": "address",
          "name": "from",
          "type": "address"
        },
        {
          "indexed": true,
          "internalType": "address",
          "name": "to",
          "type": "address"
        },
        {
          "indexed": false,
          "internalType": "uint256",
          "name": "id",
          "type": "uint256"
        },
        {
          "indexed": false,
          "internalType": "uint256",
          "name": "value",
          "type": "uint256"
        }
      ],
      "name": "TransferSingle",
      "type": "event"
    },
    {
      "anonymous": false,
      "inputs": [
        {
          "indexed": false,
          "internalType": "string",
          "name": "value",
          "type": "string"
        },
        {
          "indexed": true,
          "internalType": "uint256",
          "name": "id",
          "type": "uint256"
        }
      ],
      "name": "URI",
      "type": "event"
    },
    {
      "inputs": [
        {
          "internalType": "address",
          "name": "account",
          "type": "address"
        },
        {
          "internalType": "uint256",
          "name": "id",
          "type": "uint256"
        }
      ],
      "name": "balanceOf",
      "outputs": [
        {
          "internalType": "uint256",
          "name": "",
          "type": "uint256"
        }
      ],
      "stateMutability": "view",
      "type": "function"
    },
    {
      "inputs": [
        {
          "internalType": "address[]",
          "name": "accounts",
          "type": "address[]"
        },
        {
          "internalType": "uint256[]",
          "name": "ids",
          "type": "uint256[]"
        }
      ],
      "name": "balanceOfBatch",
      "outputs": [
        {
          "internalType": "uint256[]",
          "name": "",
          "type": "uint256[]"
        }
      ],
      "stateMutability": "view",
      "type": "function"
    },
    {
      "inputs": [
        {
          "internalType": "address",
          "name": "account",
          "type": "address"
        },
        {
          "internalType": "address",
          "name": "operator",
          "type": "address"
        }
      ],
      "name": "isApprovedForAll",
      "outputs": [
        {
          "internalType": "bool",
          "name": "",
          "type": "bool"
        }
      ],
      "stateMutability": "view",
      "type": "function"
    },
    {
      "inputs": [
        {
          "internalType": "address",
          "name": "to",
          "type": "address"
        },
        {
          "internalType": "string",
          "name": "tokenURI",
          "type": "string"
        }
      ],
      "name": "mint",
      "outputs": [
        {
          "internalType": "uint256",
          "name": "",
          "type": "uint256"
        }
      ],
      "stateMutability": "nonpayable",
      "type": "function"
    },
    {
      "inputs": [
        {
          "internalType": "address",
          "name": "to",
          "type": "address"
        },
        {
          "internalType": "string",
          "name": "tokenURI",
          "type": "string"
        },
        {
          "internalType": "uint256",
          "name": "nonce",
          "type": "uint256"
        },
        {
          "internalType": "bytes",
          "name": "signature",
          "type": "bytes"
        }
      ],
      "name": "mintWithMetaTransaction",
      "outputs": [],
      "stateMutability": "nonpayable",
      "type": "function"
    },
    {
      "inputs": [
        {
          "internalType": "uint256",
          "name": "",
          "type": "uint256"
        },
        {
          "internalType": "uint256",
          "name": "value",
          "type": "uint256"
        }
      ],
      "name": "royaltyInfo",
      "outputs": [
        {
          "internalType": "address",
          "name": "receiver",
          "type": "address"
        },
        {
          "internalType": "uint256",
          "name": "royaltyAmount",
          "type": "uint256"
        }
      ],
      "stateMutability": "view",
      "type": "function"
    },
    {
      "inputs": [
        {
          "internalType": "address",
          "name": "from",
          "type": "address"
        },
        {
          "internalType": "address",
          "name": "to",
          "type": "address"
        },
        {
          "internalType": "uint256[]",
          "name": "ids",
          "type": "uint256[]"
        },
        {
          "internalType": "uint256[]",
          "name": "amounts",
          "type": "uint256[]"
        },
        {
          "internalType": "bytes",
          "name": "data",
          "type": "bytes"
        }
      ],
      "name": "safeBatchTransferFrom",
      "outputs": [],
      "stateMutability": "nonpayable",
      "type": "function"
    },
    {
      "inputs": [
        {
          "internalType": "address",
          "name": "from",
          "type": "address"
        },
        {
          "internalType": "address",
          "name": "to",
          "type": "address"
        },
        {
          "internalType": "uint256",
          "name": "id",
          "type": "uint256"
        },
        {
          "internalType": "uint256",
          "name": "amount",
          "type": "uint256"
        },
        {
          "internalType": "bytes",
          "name": "data",
          "type": "bytes"
        }
      ],
      "name": "safeTransferFrom",
      "outputs": [],
      "stateMutability": "nonpayable",
      "type": "function"
    },
    {
      "inputs": [
        {
          "internalType": "address",
          "name": "operator",
          "type": "address"
        },
        {
          "internalType": "bool",
          "name": "approved",
          "type": "bool"
        }
      ],
      "name": "setApprovalForAll",
      "outputs": [],
      "stateMutability": "nonpayable",
      "type": "function"
    },
    {
      "inputs": [
        {
          "internalType": "uint256",
          "name": "royaltyFee",
          "type": "uint256"
        }
      ],
      "name": "setRoyaltyFee",
      "outputs": [],
      "stateMutability": "nonpayable",
      "type": "function"
    },
    {
      "inputs": [
        {
          "internalType": "bytes4",
          "name": "interfaceId",
          "type": "bytes4"
        }
      ],
      "name": "supportsInterface",
      "outputs": [
        {
          "internalType": "bool",
          "name": "",
          "type": "bool"
        }
      ],
      "stateMutability": "view",
      "type": "function"
    },
    {
      "inputs": [
        {
          "internalType": "uint256",
          "name": "tokenId",
          "type": "uint256"
        }
      ],
      "name": "uri",
      "outputs": [
        {
          "internalType": "string",
          "name": "",
          "type": "string"
        }
      ],
      "stateMutability": "view",
      "type": "function"
    }
  ],
  "bytecode": "0x60806040523480156200001157600080fd5b5060405162003dd738038062003dd78339818101604052810190620000379190620001f7565b816200004981620000a260201b60201c565b5033600360006101000a81548173ffffffffffffffffffffffffffffffffffffffff021916908373ffffffffffffffffffffffffffffffffffffffff1602179055506000600481905550806005819055505050620003e5565b8060029080519060200190620000ba929190620000be565b5050565b828054620000cc90620002f0565b90600052602060002090601f016020900481019282620000f057600085556200013c565b82601f106200010b57805160ff19168380011785556200013c565b828001600101855582156200013c579182015b828111156200013b5782518255916020019190600101906200011e565b5b5090506200014b91906200014f565b5090565b5b808211156200016a57600081600090555060010162000150565b5090565b6000620001856200017f846200027a565b62000251565b9050828152602081018484840111156200019e57600080fd5b620001ab848285620002ba565b509392505050565b600082601f830112620001c557600080fd5b8151620001d78482602086016200016e565b91505092915050565b600081519050620001f181620003cb565b92915050565b600080604083850312156200020b57600080fd5b600083015167ffffffffffffffff8111156200022657600080fd5b6200023485828601620001b3565b92505060206200024785828601620001e0565b9150509250929050565b60006200025d62000270565b90506200026b828262000326565b919050565b6000604051905090565b600067ffffffffffffffff8211156200029857620002976200038b565b5b620002a382620003ba565b9050602081019050919050565b6000819050919050565b60005b83811015620002da578082015181840152602081019050620002bd565b83811115620002ea576000848401525b50505050565b600060028204905060018216806200030957607f821691505b6020821081141562000320576200031f6200035c565b5b50919050565b6200033182620003ba565b810181811067ffffffffffffffff821117156200035357620003526200038b565b5b80604052505050565b7f4e487b7100000000000000000000000000000000000000000000000000000000600052602260045260246000fd5b7f4e487b7100000000000000000000000000000000000000000000000000000000600052604160045260246000fd5b6000601f19601f8301169050919050565b620003d681620002b0565b8114620003e257600080fd5b50565b6139e280620003f56000396000f3fe608060405234801561001057600080fd5b50600436106100b35760003560e01c80634e1273f4116100715780634e1273f4146101b1578063a22cb465146101e1578063d0def521146101fd578063d28f8a041461022d578063e985e9c514610249578063f242432a14610279576100b3565b8062fdd58e146100b857806301ffc9a7146100e85780630e89341c146101185780632a55205a146101485780632eb2c2d6146101795780633e4086e514610195575b600080fd5b6100d260048036038101906100cd9190612513565b610295565b6040516100df9190612eb3565b60405180910390f35b61010260048036038101906100fd91906125bb565b61035e565b60405161010f9190612c31565b60405180910390f35b610132600480360381019061012d919061260d565b610440565b60405161013f9190612c91565b60405180910390f35b610162600480360381019061015d9190612636565b61052d565b604051610170929190612baf565b60405180910390f35b610193600480360381019061018e91906122a2565b610579565b005b6101af60048036038101906101aa919061260d565b61061a565b005b6101cb60048036038101906101c6919061254f565b6106eb565b6040516101d89190612bd8565b60405180910390f35b6101fb60048036038101906101f691906123f0565b61089c565b005b6102176004803603810190610212919061242c565b6108b2565b6040516102249190612eb3565b60405180910390f35b61024760048036038101906102429190612480565b610a42565b005b610263600480360381019061025e9190612266565b610b32565b6040516102709190612c31565b60405180910390f35b610293600480360381019061028e9190612361565b610bc6565b005b60008073ffffffffffffffffffffffffffffffffffffffff168373ffffffffffffffffffffffffffffffffffffffff161415610306576040517f08c379a00000000000000000000000000000000000000000000000000000000081526004016102fd90612d53565b60405180910390fd5b60008083815260200190815260200160002060008473ffffffffffffffffffffffffffffffffffffffff1673ffffffffffffffffffffffffffffffffffffffff16815260200190815260200160002054905092915050565b60007fd9b67a26000000000000000000000000000000000000000000000000000000007bffffffffffffffffffffffffffffffffffffffffffffffffffffffff1916827bffffffffffffffffffffffffffffffffffffffffffffffffffffffff1916148061042957507f0e89341c000000000000000000000000000000000000000000000000000000007bffffffffffffffffffffffffffffffffffffffffffffffffffffffff1916827bffffffffffffffffffffffffffffffffffffffffffffffffffffffff1916145b80610439575061043882610c67565b5b9050919050565b606061044b82610cd1565b61048a576040517f08c379a000000000000000000000000000000000000000000000000000000000815260040161048190612d33565b60405180910390fd5b6007600083815260200190815260200160002080546104a890613200565b80601f01602080910402602001604051908101604052809291908181526020018280546104d490613200565b80156105215780601f106104f657610100808354040283529160200191610521565b820191906000526020600020905b81548152906001019060200180831161050457829003601f168201915b50505050509050919050565b600080600360009054906101000a900473ffffffffffffffffffffffffffffffffffffffff1691506127106005548461056691906130d9565b61057091906130a8565b90509250929050565b610581610d3d565b73ffffffffffffffffffffffffffffffffffffffff168573ffffffffffffffffffffffffffffffffffffffff1614806105c757506105c6856105c1610d3d565b610b32565b5b610606576040517f08c379a00000000000000000000000000000000000000000000000000000000081526004016105fd90612d73565b60405180910390fd5b6106138585858585610d45565b5050505050565b600360009054906101000a900473ffffffffffffffffffffffffffffffffffffffff1673ffffffffffffffffffffffffffffffffffffffff163373ffffffffffffffffffffffffffffffffffffffff16146106aa576040517f08c379a00000000000000000000000000000000000000000000000000000000081526004016106a190612dd3565b60405180910390fd5b806005819055507fd9b587d0d884e97b8e3772325d18ffc0412781f43cb5471b8eb5972667724f01816040516106e09190612eb3565b60405180910390a150565b60608151835114610731576040517f08c379a000000000000000000000000000000000000000000000000000000000815260040161072890612e33565b60405180910390fd5b6000835167ffffffffffffffff811115610774577f4e487b7100000000000000000000000000000000000000000000000000000000600052604160045260246000fd5b6040519080825280602002602001820160405280156107a25781602001602082028036833780820191505090505b50905060005b84518110156108915761083b8582815181106107ed577f4e487b7100000000000000000000000000000000000000000000000000000000600052603260045260246000fd5b602002602001015185838151811061082e577f4e487b7100000000000000000000000000000000000000000000000000000000600052603260045260246000fd5b6020026020010151610295565b828281518110610874577f4e487b7100000000000000000000000000000000000000000000000000000000600052603260045260246000fd5b6020026020010181815250508061088a90613263565b90506107a8565b508091505092915050565b6108ae6108a7610d3d565b83836110b3565b5050565b6000600360009054906101000a900473ffffffffffffffffffffffffffffffffffffffff1673ffffffffffffffffffffffffffffffffffffffff163373ffffffffffffffffffffffffffffffffffffffff1614610944576040517f08c379a000000000000000000000000000000000000000000000000000000000815260040161093b90612dd3565b60405180910390fd5b60006004549050600060405180602001604052806000815250905061096c8583600184611220565b336006600084815260200190815260200160002060006101000a81548173ffffffffffffffffffffffffffffffffffffffff021916908373ffffffffffffffffffffffffffffffffffffffff160217905550836007600084815260200190815260200160002090805190602001906109e5929190611f5e565b506001600460008282546109f99190613052565b925050819055507ff00d28232b285f24f2e38415deb2ceb31069e70d4505838b3911b4f02058502e82604051610a2f9190612eb3565b60405180910390a1819250505092915050565b600084848430604051602001610a5b9493929190612a7d565b6040516020818303038152906040528051906020012090506000610a7e826113d1565b90506000610a8c8285611401565b9050600360009054906101000a900473ffffffffffffffffffffffffffffffffffffffff1673ffffffffffffffffffffffffffffffffffffffff168173ffffffffffffffffffffffffffffffffffffffff1614610b1e576040517f08c379a0000000000000000000000000000000000000000000000000000000008152600401610b1590612d13565b60405180910390fd5b610b2887876108b2565b5050505050505050565b6000600160008473ffffffffffffffffffffffffffffffffffffffff1673ffffffffffffffffffffffffffffffffffffffff16815260200190815260200160002060008373ffffffffffffffffffffffffffffffffffffffff1673ffffffffffffffffffffffffffffffffffffffff16815260200190815260200160002060009054906101000a900460ff16905092915050565b610bce610d3d565b73ffffffffffffffffffffffffffffffffffffffff168573ffffffffffffffffffffffffffffffffffffffff161480610c145750610c1385610c0e610d3d565b610b32565b5b610c53576040517f08c379a0000000000000000000000000000000000000000000000000000000008152600401610c4a90612d73565b60405180910390fd5b610c608585858585611428565b5050505050565b60007f01ffc9a7000000000000000000000000000000000000000000000000000000007bffffffffffffffffffffffffffffffffffffffffffffffffffffffff1916827bffffffffffffffffffffffffffffffffffffffffffffffffffffffff1916149050919050565b60008073ffffffffffffffffffffffffffffffffffffffff166006600084815260200190815260200160002060009054906101000a900473ffffffffffffffffffffffffffffffffffffffff1673ffffffffffffffffffffffffffffffffffffffff1614159050919050565b600033905090565b8151835114610d89576040517f08c379a0000000000000000000000000000000000000000000000000000000008152600401610d8090612e53565b60405180910390fd5b600073ffffffffffffffffffffffffffffffffffffffff168473ffffffffffffffffffffffffffffffffffffffff161415610df9576040517f08c379a0000000000000000000000000000000000000000000000000000000008152600401610df090612db3565b60405180910390fd5b6000610e03610d3d565b9050610e138187878787876116c4565b60005b8451811015611010576000858281518110610e5a577f4e487b7100000000000000000000000000000000000000000000000000000000600052603260045260246000fd5b602002602001015190506000858381518110610e9f577f4e487b7100000000000000000000000000000000000000000000000000000000600052603260045260246000fd5b60200260200101519050600080600084815260200190815260200160002060008b73ffffffffffffffffffffffffffffffffffffffff1673ffffffffffffffffffffffffffffffffffffffff16815260200190815260200160002054905081811015610f40576040517f08c379a0000000000000000000000000000000000000000000000000000000008152600401610f3790612df3565b60405180910390fd5b81810360008085815260200190815260200160002060008c73ffffffffffffffffffffffffffffffffffffffff1673ffffffffffffffffffffffffffffffffffffffff168152602001908152602001600020819055508160008085815260200190815260200160002060008b73ffffffffffffffffffffffffffffffffffffffff1673ffffffffffffffffffffffffffffffffffffffff1681526020019081526020016000206000828254610ff59190613052565b925050819055505050508061100990613263565b9050610e16565b508473ffffffffffffffffffffffffffffffffffffffff168673ffffffffffffffffffffffffffffffffffffffff168273ffffffffffffffffffffffffffffffffffffffff167f4a39dc06d4c0dbc64b70af90fd698a233a518aa5d07e595d983b8c0526c8f7fb8787604051611087929190612bfa565b60405180910390a461109d8187878787876116cc565b6110ab8187878787876116d4565b505050505050565b8173ffffffffffffffffffffffffffffffffffffffff168373ffffffffffffffffffffffffffffffffffffffff161415611122576040517f08c379a000000000000000000000000000000000000000000000000000000000815260040161111990612e13565b60405180910390fd5b80600160008573ffffffffffffffffffffffffffffffffffffffff1673ffffffffffffffffffffffffffffffffffffffff16815260200190815260200160002060008473ffffffffffffffffffffffffffffffffffffffff1673ffffffffffffffffffffffffffffffffffffffff16815260200190815260200160002060006101000a81548160ff0219169083151502179055508173ffffffffffffffffffffffffffffffffffffffff168373ffffffffffffffffffffffffffffffffffffffff167f17307eab39ab6107e8899845ad3d59bd9653f200f220920489ca2b5937696c31836040516112139190612c31565b60405180910390a3505050565b600073ffffffffffffffffffffffffffffffffffffffff168473ffffffffffffffffffffffffffffffffffffffff161415611290576040517f08c379a000000000000000000000000000000000000000000000000000000000815260040161128790612e73565b60405180910390fd5b600061129a610d3d565b905060006112a7856118bb565b905060006112b4856118bb565b90506112c5836000898585896116c4565b8460008088815260200190815260200160002060008973ffffffffffffffffffffffffffffffffffffffff1673ffffffffffffffffffffffffffffffffffffffff16815260200190815260200160002060008282546113249190613052565b925050819055508673ffffffffffffffffffffffffffffffffffffffff16600073ffffffffffffffffffffffffffffffffffffffff168473ffffffffffffffffffffffffffffffffffffffff167fc3d58168c5ae7397731d063d5bbf3d657854427343f4c083240f7aacaa2d0f6289896040516113a2929190612ece565b60405180910390a46113b9836000898585896116cc565b6113c883600089898989611981565b50505050505050565b6000816040516020016113e49190612ac7565b604051602081830303815290604052805190602001209050919050565b60008060006114108585611b68565b9150915061141d81611bba565b819250505092915050565b600073ffffffffffffffffffffffffffffffffffffffff168473ffffffffffffffffffffffffffffffffffffffff161415611498576040517f08c379a000000000000000000000000000000000000000000000000000000000815260040161148f90612db3565b60405180910390fd5b60006114a2610d3d565b905060006114af856118bb565b905060006114bc856118bb565b90506114cc8389898585896116c4565b600080600088815260200190815260200160002060008a73ffffffffffffffffffffffffffffffffffffffff1673ffffffffffffffffffffffffffffffffffffffff16815260200190815260200160002054905085811015611563576040517f08c379a000000000000000000000000000000000000000000000000000000000815260040161155a90612df3565b60405180910390fd5b85810360008089815260200190815260200160002060008b73ffffffffffffffffffffffffffffffffffffffff1673ffffffffffffffffffffffffffffffffffffffff168152602001908152602001600020819055508560008089815260200190815260200160002060008a73ffffffffffffffffffffffffffffffffffffffff1673ffffffffffffffffffffffffffffffffffffffff16815260200190815260200160002060008282546116189190613052565b925050819055508773ffffffffffffffffffffffffffffffffffffffff168973ffffffffffffffffffffffffffffffffffffffff168573ffffffffffffffffffffffffffffffffffffffff167fc3d58168c5ae7397731d063d5bbf3d657854427343f4c083240f7aacaa2d0f628a8a604051611695929190612ece565b60405180910390a46116ab848a8a86868a6116cc565b6116b9848a8a8a8a8a611981565b505050505050505050565b505050505050565b505050505050565b6116f38473ffffffffffffffffffffffffffffffffffffffff16611e58565b156118b3578373ffffffffffffffffffffffffffffffffffffffff1663bc197c8187878686866040518663ffffffff1660e01b8152600401611739959493929190612aed565b602060405180830381600087803b15801561175357600080fd5b505af192505050801561178457506040513d601f19601f8201168201806040525081019061178191906125e4565b60015b61182a576117906133a0565b806308c379a014156117ed57506117a56138ba565b806117b057506117ef565b806040517f08c379a00000000000000000000000000000000000000000000000000000000081526004016117e49190612c91565b60405180910390fd5b505b6040517f08c379a000000000000000000000000000000000000000000000000000000000815260040161182190612e93565b60405180910390fd5b63bc197c8160e01b7bffffffffffffffffffffffffffffffffffffffffffffffffffffffff1916817bffffffffffffffffffffffffffffffffffffffffffffffffffffffff1916146118b1576040517f08c379a00000000000000000000000000000000000000000000000000000000081526004016118a890612cd3565b60405180910390fd5b505b505050505050565b60606000600167ffffffffffffffff811115611900577f4e487b7100000000000000000000000000000000000000000000000000000000600052604160045260246000fd5b60405190808252806020026020018201604052801561192e5781602001602082028036833780820191505090505b509050828160008151811061196c577f4e487b7100000000000000000000000000000000000000000000000000000000600052603260045260246000fd5b60200260200101818152505080915050919050565b6119a08473ffffffffffffffffffffffffffffffffffffffff16611e58565b15611b60578373ffffffffffffffffffffffffffffffffffffffff1663f23a6e6187878686866040518663ffffffff1660e01b81526004016119e6959493929190612b55565b602060405180830381600087803b158015611a0057600080fd5b505af1925050508015611a3157506040513d601f19601f82011682018060405250810190611a2e91906125e4565b60015b611ad757611a3d6133a0565b806308c379a01415611a9a5750611a526138ba565b80611a5d5750611a9c565b806040517f08c379a0000000000000000000000000000000000000000000000000000000008152600401611a919190612c91565b60405180910390fd5b505b6040517f08c379a0000000000000000000000000000000000000000000000000000000008152600401611ace90612e93565b60405180910390fd5b63f23a6e6160e01b7bffffffffffffffffffffffffffffffffffffffffffffffffffffffff1916817bffffffffffffffffffffffffffffffffffffffffffffffffffffffff191614611b5e576040517f08c379a0000000000000000000000000000000000000000000000000000000008152600401611b5590612cd3565b60405180910390fd5b505b505050505050565b600080604183511415611baa5760008060006020860151925060408601519150606086015160001a9050611b9e87828585611e7b565b94509450505050611bb3565b60006002915091505b9250929050565b60006004811115611bf4577f4e487b7100000000000000000000000000000000000000000000000000000000600052602160045260246000fd5b816004811115611c2d577f4e487b7100000000000000000000000000000000000000000000000000000000600052602160045260246000fd5b1415611c3857611e55565b60016004811115611c72577f4e487b7100000000000000000000000000000000000000000000000000000000600052602160045260246000fd5b816004811115611cab577f4e487b7100000000000000000000000000000000000000000000000000000000600052602160045260246000fd5b1415611cec576040517f08c379a0000000000000000000000000000000000000000000000000000000008152600401611ce390612cb3565b60405180910390fd5b60026004811115611d26577f4e487b7100000000000000000000000000000000000000000000000000000000600052602160045260246000fd5b816004811115611d5f577f4e487b7100000000000000000000000000000000000000000000000000000000600052602160045260246000fd5b1415611da0576040517f08c379a0000000000000000000000000000000000000000000000000000000008152600401611d9790612cf3565b60405180910390fd5b60036004811115611dda577f4e487b7100000000000000000000000000000000000000000000000000000000600052602160045260246000fd5b816004811115611e13577f4e487b7100000000000000000000000000000000000000000000000000000000600052602160045260246000fd5b1415611e54576040517f08c379a0000000000000000000000000000000000000000000000000000000008152600401611e4b90612d93565b60405180910390fd5b5b50565b6000808273ffffffffffffffffffffffffffffffffffffffff163b119050919050565b6000807f7fffffffffffffffffffffffffffffff5d576e7357a4501ddfe92f46681b20a08360001c1115611eb6576000600391509150611f55565b600060018787878760405160008152602001604052604051611edb9493929190612c4c565b6020604051602081039080840390855afa158015611efd573d6000803e3d6000fd5b505050602060405103519050600073ffffffffffffffffffffffffffffffffffffffff168173ffffffffffffffffffffffffffffffffffffffff161415611f4c57600060019250925050611f55565b80600092509250505b94509492505050565b828054611f6a90613200565b90600052602060002090601f016020900481019282611f8c5760008555611fd3565b82601f10611fa557805160ff1916838001178555611fd3565b82800160010185558215611fd3579182015b82811115611fd2578251825591602001919060010190611fb7565b5b509050611fe09190611fe4565b5090565b5b80821115611ffd576000816000905550600101611fe5565b5090565b600061201461200f84612f1c565b612ef7565b9050808382526020820190508285602086028201111561203357600080fd5b60005b8581101561206357816120498882612155565b845260208401935060208301925050600181019050612036565b5050509392505050565b600061208061207b84612f48565b612ef7565b9050808382526020820190508285602086028201111561209f57600080fd5b60005b858110156120cf57816120b58882612251565b8452602084019350602083019250506001810190506120a2565b5050509392505050565b60006120ec6120e784612f74565b612ef7565b90508281526020810184848401111561210457600080fd5b61210f8482856131be565b509392505050565b600061212a61212584612fa5565b612ef7565b90508281526020810184848401111561214257600080fd5b61214d8482856131be565b509392505050565b60008135905061216481613950565b92915050565b600082601f83011261217b57600080fd5b813561218b848260208601612001565b91505092915050565b600082601f8301126121a557600080fd5b81356121b584826020860161206d565b91505092915050565b6000813590506121cd81613967565b92915050565b6000813590506121e28161397e565b92915050565b6000815190506121f78161397e565b92915050565b600082601f83011261220e57600080fd5b813561221e8482602086016120d9565b91505092915050565b600082601f83011261223857600080fd5b8135612248848260208601612117565b91505092915050565b60008135905061226081613995565b92915050565b6000806040838503121561227957600080fd5b600061228785828601612155565b925050602061229885828601612155565b9150509250929050565b600080600080600060a086880312156122ba57600080fd5b60006122c888828901612155565b95505060206122d988828901612155565b945050604086013567ffffffffffffffff8111156122f657600080fd5b61230288828901612194565b935050606086013567ffffffffffffffff81111561231f57600080fd5b61232b88828901612194565b925050608086013567ffffffffffffffff81111561234857600080fd5b612354888289016121fd565b9150509295509295909350565b600080600080600060a0868803121561237957600080fd5b600061238788828901612155565b955050602061239888828901612155565b94505060406123a988828901612251565b93505060606123ba88828901612251565b925050608086013567ffffffffffffffff8111156123d757600080fd5b6123e3888289016121fd565b9150509295509295909350565b6000806040838503121561240357600080fd5b600061241185828601612155565b9250506020612422858286016121be565b9150509250929050565b6000806040838503121561243f57600080fd5b600061244d85828601612155565b925050602083013567ffffffffffffffff81111561246a57600080fd5b61247685828601612227565b9150509250929050565b6000806000806080858703121561249657600080fd5b60006124a487828801612155565b945050602085013567ffffffffffffffff8111156124c157600080fd5b6124cd87828801612227565b93505060406124de87828801612251565b925050606085013567ffffffffffffffff8111156124fb57600080fd5b612507878288016121fd565b91505092959194509250565b6000806040838503121561252657600080fd5b600061253485828601612155565b925050602061254585828601612251565b9150509250929050565b6000806040838503121561256257600080fd5b600083013567ffffffffffffffff81111561257c57600080fd5b6125888582860161216a565b925050602083013567ffffffffffffffff8111156125a557600080fd5b6125b185828601612194565b9150509250929050565b6000602082840312156125cd57600080fd5b60006125db848285016121d3565b91505092915050565b6000602082840312156125f657600080fd5b6000612604848285016121e8565b91505092915050565b60006020828403121561261f57600080fd5b600061262d84828501612251565b91505092915050565b6000806040838503121561264957600080fd5b600061265785828601612251565b925050602061266885828601612251565b9150509250929050565b600061267e8383612a39565b60208301905092915050565b61269381613133565b82525050565b6126aa6126a582613133565b6132ac565b82525050565b60006126bb82612fe6565b6126c58185613014565b93506126d083612fd6565b8060005b838110156127015781516126e88882612672565b97506126f383613007565b9250506001810190506126d4565b5085935050505092915050565b61271781613145565b82525050565b61272681613151565b82525050565b61273d61273882613151565b6132be565b82525050565b600061274e82612ff1565b6127588185613025565b93506127688185602086016131cd565b612771816133c2565b840191505092915050565b600061278782612ffc565b6127918185613036565b93506127a18185602086016131cd565b6127aa816133c2565b840191505092915050565b60006127c082612ffc565b6127ca8185613047565b93506127da8185602086016131cd565b80840191505092915050565b60006127f3601883613036565b91506127fe826133ed565b602082019050919050565b6000612816602883613036565b915061282182613416565b604082019050919050565b6000612839601f83613036565b915061284482613465565b602082019050919050565b600061285c601c83613047565b91506128678261348e565b601c82019050919050565b600061287f602183613036565b915061288a826134b7565b604082019050919050565b60006128a2602f83613036565b91506128ad82613506565b604082019050919050565b60006128c5602a83613036565b91506128d082613555565b604082019050919050565b60006128e8602e83613036565b91506128f3826135a4565b604082019050919050565b600061290b602283613036565b9150612916826135f3565b604082019050919050565b600061292e602583613036565b915061293982613642565b604082019050919050565b6000612951603f83613036565b915061295c82613691565b604082019050919050565b6000612974602a83613036565b915061297f826136e0565b604082019050919050565b6000612997602983613036565b91506129a28261372f565b604082019050919050565b60006129ba602983613036565b91506129c58261377e565b604082019050919050565b60006129dd602883613036565b91506129e8826137cd565b604082019050919050565b6000612a00602183613036565b9150612a0b8261381c565b604082019050919050565b6000612a23603483613036565b9150612a2e8261386b565b604082019050919050565b612a42816131a7565b82525050565b612a51816131a7565b82525050565b612a68612a63826131a7565b6132da565b82525050565b612a77816131b1565b82525050565b6000612a898287612699565b601482019150612a9982866127b5565b9150612aa58285612a57565b602082019150612ab58284612699565b60148201915081905095945050505050565b6000612ad28261284f565b9150612ade828461272c565b60208201915081905092915050565b600060a082019050612b02600083018861268a565b612b0f602083018761268a565b8181036040830152612b2181866126b0565b90508181036060830152612b3581856126b0565b90508181036080830152612b498184612743565b90509695505050505050565b600060a082019050612b6a600083018861268a565b612b77602083018761268a565b612b846040830186612a48565b612b916060830185612a48565b8181036080830152612ba38184612743565b90509695505050505050565b6000604082019050612bc4600083018561268a565b612bd16020830184612a48565b9392505050565b60006020820190508181036000830152612bf281846126b0565b905092915050565b60006040820190508181036000830152612c1481856126b0565b90508181036020830152612c2881846126b0565b90509392505050565b6000602082019050612c46600083018461270e565b92915050565b6000608082019050612c61600083018761271d565b612c6e6020830186612a6e565b612c7b604083018561271d565b612c88606083018461271d565b95945050505050565b60006020820190508181036000830152612cab818461277c565b905092915050565b60006020820190508181036000830152612ccc816127e6565b9050919050565b60006020820190508181036000830152612cec81612809565b9050919050565b60006020820190508181036000830152612d0c8161282c565b9050919050565b60006020820190508181036000830152612d2c81612872565b9050919050565b60006020820190508181036000830152612d4c81612895565b9050919050565b60006020820190508181036000830152612d6c816128b8565b9050919050565b60006020820190508181036000830152612d8c816128db565b9050919050565b60006020820190508181036000830152612dac816128fe565b9050919050565b60006020820190508181036000830152612dcc81612921565b9050919050565b60006020820190508181036000830152612dec81612944565b9050919050565b60006020820190508181036000830152612e0c81612967565b9050919050565b60006020820190508181036000830152612e2c8161298a565b9050919050565b60006020820190508181036000830152612e4c816129ad565b9050919050565b60006020820190508181036000830152612e6c816129d0565b9050919050565b60006020820190508181036000830152612e8c816129f3565b9050919050565b60006020820190508181036000830152612eac81612a16565b9050919050565b6000602082019050612ec86000830184612a48565b92915050565b6000604082019050612ee36000830185612a48565b612ef06020830184612a48565b9392505050565b6000612f01612f12565b9050612f0d8282613232565b919050565b6000604051905090565b600067ffffffffffffffff821115612f3757612f36613371565b5b602082029050602081019050919050565b600067ffffffffffffffff821115612f6357612f62613371565b5b602082029050602081019050919050565b600067ffffffffffffffff821115612f8f57612f8e613371565b5b612f98826133c2565b9050602081019050919050565b600067ffffffffffffffff821115612fc057612fbf613371565b5b612fc9826133c2565b9050602081019050919050565b6000819050602082019050919050565b600081519050919050565b600081519050919050565b600081519050919050565b6000602082019050919050565b600082825260208201905092915050565b600082825260208201905092915050565b600082825260208201905092915050565b600081905092915050565b600061305d826131a7565b9150613068836131a7565b9250827fffffffffffffffffffffffffffffffffffffffffffffffffffffffffffffffff0382111561309d5761309c6132e4565b5b828201905092915050565b60006130b3826131a7565b91506130be836131a7565b9250826130ce576130cd613313565b5b828204905092915050565b60006130e4826131a7565b91506130ef836131a7565b9250817fffffffffffffffffffffffffffffffffffffffffffffffffffffffffffffffff0483118215151615613128576131276132e4565b5b828202905092915050565b600061313e82613187565b9050919050565b60008115159050919050565b6000819050919050565b60007fffffffff0000000000000000000000000000000000000000000000000000000082169050919050565b600073ffffffffffffffffffffffffffffffffffffffff82169050919050565b6000819050919050565b600060ff82169050919050565b82818337600083830152505050565b60005b838110156131eb5780820151818401526020810190506131d0565b838111156131fa576000848401525b50505050565b6000600282049050600182168061321857607f821691505b6020821081141561322c5761322b613342565b5b50919050565b61323b826133c2565b810181811067ffffffffffffffff8211171561325a57613259613371565b5b80604052505050565b600061326e826131a7565b91507fffffffffffffffffffffffffffffffffffffffffffffffffffffffffffffffff8214156132a1576132a06132e4565b5b600182019050919050565b60006132b7826132c8565b9050919050565b6000819050919050565b60006132d3826133d3565b9050919050565b6000819050919050565b7f4e487b7100000000000000000000000000000000000000000000000000000000600052601160045260246000fd5b7f4e487b7100000000000000000000000000000000000000000000000000000000600052601260045260246000fd5b7f4e487b7100000000000000000000000000000000000000000000000000000000600052602260045260246000fd5b7f4e487b7100000000000000000000000000000000000000000000000000000000600052604160045260246000fd5b600060033d11156133bf5760046000803e6133bc6000516133e0565b90505b90565b6000601f19601f8301169050919050565b60008160601b9050919050565b60008160e01c9050919050565b7f45434453413a20696e76616c6964207369676e61747572650000000000000000600082015250565b7f455243313135353a204552433131353552656365697665722072656a6563746560008201527f6420746f6b656e73000000000000000000000000000000000000000000000000602082015250565b7f45434453413a20696e76616c6964207369676e6174757265206c656e67746800600082015250565b7f19457468657265756d205369676e6564204d6573736167653a0a333200000000600082015250565b7f414947656e6572617465644e46543a20496e76616c6964207369676e6174757260008201527f6500000000000000000000000000000000000000000000000000000000000000602082015250565b7f414947656e6572617465644e46543a2055524920717565727920666f72206e6f60008201527f6e6578697374656e7420746f6b656e0000000000000000000000000000000000602082015250565b7f455243313135353a2061646472657373207a65726f206973206e6f742061207660008201527f616c6964206f776e657200000000000000000000000000000000000000000000602082015250565b7f455243313135353a2063616c6c6572206973206e6f7420746f6b656e206f776e60008201527f6572206f7220617070726f766564000000000000000000000000000000000000602082015250565b7f45434453413a20696e76616c6964207369676e6174757265202773272076616c60008201527f7565000000000000000000000000000000000000000000000000000000000000602082015250565b7f455243313135353a207472616e7366657220746f20746865207a65726f20616460008201527f6472657373000000000000000000000000000000000000000000000000000000602082015250565b7f414947656e6572617465644e46543a204f6e6c792074686520636f6e7472616360008201527f74206f776e65722063616e2063616c6c20746869732066756e6374696f6e2e00602082015250565b7f455243313135353a20696e73756666696369656e742062616c616e636520666f60008201527f72207472616e7366657200000000000000000000000000000000000000000000602082015250565b7f455243313135353a2073657474696e6720617070726f76616c2073746174757360008201527f20666f722073656c660000000000000000000000000000000000000000000000602082015250565b7f455243313135353a206163636f756e747320616e6420696473206c656e67746860008201527f206d69736d617463680000000000000000000000000000000000000000000000602082015250565b7f455243313135353a2069647320616e6420616d6f756e7473206c656e6774682060008201527f6d69736d61746368000000000000000000000000000000000000000000000000602082015250565b7f455243313135353a206d696e7420746f20746865207a65726f2061646472657360008201527f7300000000000000000000000000000000000000000000000000000000000000602082015250565b7f455243313135353a207472616e7366657220746f206e6f6e2d4552433131353560008201527f526563656976657220696d706c656d656e746572000000000000000000000000602082015250565b600060443d10156138ca5761394d565b6138d2612f12565b60043d036004823e80513d602482011167ffffffffffffffff821117156138fa57505061394d565b808201805167ffffffffffffffff811115613918575050505061394d565b80602083010160043d03850181111561393557505050505061394d565b61394482602001850186613232565b82955050505050505b90565b61395981613133565b811461396457600080fd5b50565b61397081613145565b811461397b57600080fd5b50565b6139878161315b565b811461399257600080fd5b50565b61399e816131a7565b81146139a957600080fd5b5056fea2646970667358221220007d47e31fc8d05065ed491a198e7c43a1e938f186979112604332c8b734004164736f6c63430008010033",
  "linkReferences": {},
  "deployedLinkReferences": {}
}