{
  "_format": "hh-sol-artifact-1",
  "contractName": "AIGeneratedNFT",
  "sourceName": "contracts/nft.sol",
  "abi": [
    {
      "inputs": [
        {
          "internalType": "string",
          "name": "uri",
          "type": "string"
        },
        {
          "internalType": "uint256",
          "name": "royaltyFee",
          "type": "uint256"
        }
      ],
      "stateMutability": "nonpayable",
      "type": "constructor"
    },
    {
      "anonymous": false,
      "inputs": [
        {
          "indexed": true,
          "internalType": "address",
          "name": "account",
          "type": "address"
        },
        {
          "indexed": true,
          "internalType": "address",
          "name": "operator",
          "type": "address"
        },
        {
          "indexed": false,
          "internalType": "bool",
          "name": "approved",
          "type": "bool"
        }
      ],
      "name": "ApprovalForAll",
      "type": "event"
    },
    {
      "anonymous": false,
      "inputs": [
        {
          "indexed": false,
          "internalType": "uint256",
          "name": "royaltyFee",
          "type": "uint256"
        }
      ],
      "name": "RoyaltyFeeUpdated",
      "type": "event"
    },
    {
      "anonymous": false,
      "inputs": [
        {
          "indexed": true,
          "internalType": "address",
          "name": "operator",
          "type": "address"
        },
        {
          "indexed": true,
          "internalType": "address",
          "name": "from",
          "type": "address"
        },
        {
          "indexed": true,
          "internalType": "address",
          "name": "to",
          "type": "address"
        },
        {
          "indexed": false,
          "internalType": "uint256[]",
          "name": "ids",
          "type": "uint256[]"
        },
        {
          "indexed": false,
          "internalType": "uint256[]",
          "name": "values",
          "type": "uint256[]"
        }
      ],
      "name": "TransferBatch",
      "type": "event"
    },
    {
      "anonymous": false,
      "inputs": [
        {
          "indexed": true,
          "internalType": "address",
          "name": "operator",
          "type": "address"
        },
        {
          "indexed": true,
          "internalType": "address",
          "name": "from",
          "type": "address"
        },
        {
          "indexed": true,
          "internalType": "address",
          "name": "to",
          "type": "address"
        },
        {
          "indexed": false,
          "internalType": "uint256",
          "name": "id",
          "type": "uint256"
        },
        {
          "indexed": false,
          "internalType": "uint256",
          "name": "value",
          "type": "uint256"
        }
      ],
      "name": "TransferSingle",
      "type": "event"
    },
    {
      "anonymous": false,
      "inputs": [
        {
          "indexed": false,
          "internalType": "string",
          "name": "value",
          "type": "string"
        },
        {
          "indexed": true,
          "internalType": "uint256",
          "name": "id",
          "type": "uint256"
        }
      ],
      "name": "URI",
      "type": "event"
    },
    {
      "inputs": [
        {
          "internalType": "address",
          "name": "account",
          "type": "address"
        },
        {
          "internalType": "uint256",
          "name": "id",
          "type": "uint256"
        }
      ],
      "name": "balanceOf",
      "outputs": [
        {
          "internalType": "uint256",
          "name": "",
          "type": "uint256"
        }
      ],
      "stateMutability": "view",
      "type": "function"
    },
    {
      "inputs": [
        {
          "internalType": "address[]",
          "name": "accounts",
          "type": "address[]"
        },
        {
          "internalType": "uint256[]",
          "name": "ids",
          "type": "uint256[]"
        }
      ],
      "name": "balanceOfBatch",
      "outputs": [
        {
          "internalType": "uint256[]",
          "name": "",
          "type": "uint256[]"
        }
      ],
      "stateMutability": "view",
      "type": "function"
    },
    {
      "inputs": [
        {
          "internalType": "address",
          "name": "account",
          "type": "address"
        },
        {
          "internalType": "address",
          "name": "operator",
          "type": "address"
        }
      ],
      "name": "isApprovedForAll",
      "outputs": [
        {
          "internalType": "bool",
          "name": "",
          "type": "bool"
        }
      ],
      "stateMutability": "view",
      "type": "function"
    },
    {
      "inputs": [
        {
          "internalType": "address",
          "name": "to",
          "type": "address"
        },
        {
          "internalType": "string",
          "name": "tokenURI",
          "type": "string"
        }
      ],
      "name": "mint",
      "outputs": [
        {
          "internalType": "uint256",
          "name": "",
          "type": "uint256"
        }
      ],
      "stateMutability": "nonpayable",
      "type": "function"
    },
    {
      "inputs": [
        {
          "internalType": "uint256",
          "name": "",
          "type": "uint256"
        },
        {
          "internalType": "uint256",
          "name": "value",
          "type": "uint256"
        }
      ],
      "name": "royaltyInfo",
      "outputs": [
        {
          "internalType": "address",
          "name": "receiver",
          "type": "address"
        },
        {
          "internalType": "uint256",
          "name": "royaltyAmount",
          "type": "uint256"
        }
      ],
      "stateMutability": "view",
      "type": "function"
    },
    {
      "inputs": [
        {
          "internalType": "address",
          "name": "from",
          "type": "address"
        },
        {
          "internalType": "address",
          "name": "to",
          "type": "address"
        },
        {
          "internalType": "uint256[]",
          "name": "ids",
          "type": "uint256[]"
        },
        {
          "internalType": "uint256[]",
          "name": "amounts",
          "type": "uint256[]"
        },
        {
          "internalType": "bytes",
          "name": "data",
          "type": "bytes"
        }
      ],
      "name": "safeBatchTransferFrom",
      "outputs": [],
      "stateMutability": "nonpayable",
      "type": "function"
    },
    {
      "inputs": [
        {
          "internalType": "address",
          "name": "from",
          "type": "address"
        },
        {
          "internalType": "address",
          "name": "to",
          "type": "address"
        },
        {
          "internalType": "uint256",
          "name": "id",
          "type": "uint256"
        },
        {
          "internalType": "uint256",
          "name": "amount",
          "type": "uint256"
        },
        {
          "internalType": "bytes",
          "name": "data",
          "type": "bytes"
        }
      ],
      "name": "safeTransferFrom",
      "outputs": [],
      "stateMutability": "nonpayable",
      "type": "function"
    },
    {
      "inputs": [
        {
          "internalType": "address",
          "name": "operator",
          "type": "address"
        },
        {
          "internalType": "bool",
          "name": "approved",
          "type": "bool"
        }
      ],
      "name": "setApprovalForAll",
      "outputs": [],
      "stateMutability": "nonpayable",
      "type": "function"
    },
    {
      "inputs": [
        {
          "internalType": "uint256",
          "name": "royaltyFee",
          "type": "uint256"
        }
      ],
      "name": "setRoyaltyFee",
      "outputs": [],
      "stateMutability": "nonpayable",
      "type": "function"
    },
    {
      "inputs": [
        {
          "internalType": "bytes4",
          "name": "interfaceId",
          "type": "bytes4"
        }
      ],
      "name": "supportsInterface",
      "outputs": [
        {
          "internalType": "bool",
          "name": "",
          "type": "bool"
        }
      ],
      "stateMutability": "view",
      "type": "function"
    },
    {
      "inputs": [
        {
          "internalType": "uint256",
          "name": "tokenId",
          "type": "uint256"
        }
      ],
      "name": "uri",
      "outputs": [
        {
          "internalType": "string",
          "name": "",
          "type": "string"
        }
      ],
      "stateMutability": "view",
      "type": "function"
    }
  ],
  "bytecode": "0x60806040523480156200001157600080fd5b50604051620033ce380380620033ce8339818101604052810190620000379190620001f7565b816200004981620000a260201b60201c565b5033600360006101000a81548173ffffffffffffffffffffffffffffffffffffffff021916908373ffffffffffffffffffffffffffffffffffffffff1602179055506000600581905550806006819055505050620003e5565b8060029080519060200190620000ba929190620000be565b5050565b828054620000cc90620002f0565b90600052602060002090601f016020900481019282620000f057600085556200013c565b82601f106200010b57805160ff19168380011785556200013c565b828001600101855582156200013c579182015b828111156200013b5782518255916020019190600101906200011e565b5b5090506200014b91906200014f565b5090565b5b808211156200016a57600081600090555060010162000150565b5090565b6000620001856200017f846200027a565b62000251565b9050828152602081018484840111156200019e57600080fd5b620001ab848285620002ba565b509392505050565b600082601f830112620001c557600080fd5b8151620001d78482602086016200016e565b91505092915050565b600081519050620001f181620003cb565b92915050565b600080604083850312156200020b57600080fd5b600083015167ffffffffffffffff8111156200022657600080fd5b6200023485828601620001b3565b92505060206200024785828601620001e0565b9150509250929050565b60006200025d62000270565b90506200026b828262000326565b919050565b6000604051905090565b600067ffffffffffffffff8211156200029857620002976200038b565b5b620002a382620003ba565b9050602081019050919050565b6000819050919050565b60005b83811015620002da578082015181840152602081019050620002bd565b83811115620002ea576000848401525b50505050565b600060028204905060018216806200030957607f821691505b6020821081141562000320576200031f6200035c565b5b50919050565b6200033182620003ba565b810181811067ffffffffffffffff821117156200035357620003526200038b565b5b80604052505050565b7f4e487b7100000000000000000000000000000000000000000000000000000000600052602260045260246000fd5b7f4e487b7100000000000000000000000000000000000000000000000000000000600052604160045260246000fd5b6000601f19601f8301169050919050565b620003d681620002b0565b8114620003e257600080fd5b50565b612fd980620003f56000396000f3fe608060405234801561001057600080fd5b50600436106100a85760003560e01c80633e4086e5116100715780633e4086e51461018a5780634e1273f4146101a6578063a22cb465146101d6578063d0def521146101f2578063e985e9c514610222578063f242432a14610252576100a8565b8062fdd58e146100ad57806301ffc9a7146100dd5780630e89341c1461010d5780632a55205a1461013d5780632eb2c2d61461016e575b600080fd5b6100c760048036038101906100c29190611f02565b61026e565b6040516100d4919061262a565b60405180910390f35b6100f760048036038101906100f29190611faa565b610337565b604051610104919061246d565b60405180910390f35b61012760048036038101906101229190611ffc565b610419565b6040516101349190612488565b60405180910390f35b61015760048036038101906101529190612025565b610506565b6040516101659291906123eb565b60405180910390f35b61018860048036038101906101839190611d24565b610552565b005b6101a4600480360381019061019f9190611ffc565b6105f3565b005b6101c060048036038101906101bb9190611f3e565b6106c4565b6040516101cd9190612414565b60405180910390f35b6101f060048036038101906101eb9190611e72565b610875565b005b61020c60048036038101906102079190611eae565b61088b565b604051610219919061262a565b60405180910390f35b61023c60048036038101906102379190611ce8565b6109de565b604051610249919061246d565b60405180910390f35b61026c60048036038101906102679190611de3565b610a72565b005b60008073ffffffffffffffffffffffffffffffffffffffff168373ffffffffffffffffffffffffffffffffffffffff1614156102df576040517f08c379a00000000000000000000000000000000000000000000000000000000081526004016102d6906124ea565b60405180910390fd5b60008083815260200190815260200160002060008473ffffffffffffffffffffffffffffffffffffffff1673ffffffffffffffffffffffffffffffffffffffff16815260200190815260200160002054905092915050565b60007fd9b67a26000000000000000000000000000000000000000000000000000000007bffffffffffffffffffffffffffffffffffffffffffffffffffffffff1916827bffffffffffffffffffffffffffffffffffffffffffffffffffffffff1916148061040257507f0e89341c000000000000000000000000000000000000000000000000000000007bffffffffffffffffffffffffffffffffffffffffffffffffffffffff1916827bffffffffffffffffffffffffffffffffffffffffffffffffffffffff1916145b80610412575061041182610b13565b5b9050919050565b606061042482610b7d565b610463576040517f08c379a000000000000000000000000000000000000000000000000000000000815260040161045a906124ca565b60405180910390fd5b60086000838152602001908152602001600020805461048190612955565b80601f01602080910402602001604051908101604052809291908181526020018280546104ad90612955565b80156104fa5780601f106104cf576101008083540402835291602001916104fa565b820191906000526020600020905b8154815290600101906020018083116104dd57829003601f168201915b50505050509050919050565b600080600360009054906101000a900473ffffffffffffffffffffffffffffffffffffffff1691506127106006548461053f9190612845565b6105499190612814565b90509250929050565b61055a610be9565b73ffffffffffffffffffffffffffffffffffffffff168573ffffffffffffffffffffffffffffffffffffffff1614806105a0575061059f8561059a610be9565b6109de565b5b6105df576040517f08c379a00000000000000000000000000000000000000000000000000000000081526004016105d69061250a565b60405180910390fd5b6105ec8585858585610bf1565b5050505050565b600360009054906101000a900473ffffffffffffffffffffffffffffffffffffffff1673ffffffffffffffffffffffffffffffffffffffff163373ffffffffffffffffffffffffffffffffffffffff1614610683576040517f08c379a000000000000000000000000000000000000000000000000000000000815260040161067a9061254a565b60405180910390fd5b806006819055507fd9b587d0d884e97b8e3772325d18ffc0412781f43cb5471b8eb5972667724f01816040516106b9919061262a565b60405180910390a150565b6060815183511461070a576040517f08c379a0000000000000000000000000000000000000000000000000000000008152600401610701906125aa565b60405180910390fd5b6000835167ffffffffffffffff81111561074d577f4e487b7100000000000000000000000000000000000000000000000000000000600052604160045260246000fd5b60405190808252806020026020018201604052801561077b5781602001602082028036833780820191505090505b50905060005b845181101561086a576108148582815181106107c6577f4e487b7100000000000000000000000000000000000000000000000000000000600052603260045260246000fd5b6020026020010151858381518110610807577f4e487b7100000000000000000000000000000000000000000000000000000000600052603260045260246000fd5b602002602001015161026e565b82828151811061084d577f4e487b7100000000000000000000000000000000000000000000000000000000600052603260045260246000fd5b60200260200101818152505080610863906129b8565b9050610781565b508091505092915050565b610887610880610be9565b8383610f5f565b5050565b6000600360009054906101000a900473ffffffffffffffffffffffffffffffffffffffff1673ffffffffffffffffffffffffffffffffffffffff163373ffffffffffffffffffffffffffffffffffffffff161461091d576040517f08c379a00000000000000000000000000000000000000000000000000000000081526004016109149061254a565b60405180910390fd5b6000600554905061094084826001604051806020016040528060008152506110cc565b336007600083815260200190815260200160002060006101000a81548173ffffffffffffffffffffffffffffffffffffffff021916908373ffffffffffffffffffffffffffffffffffffffff160217905550826008600083815260200190815260200160002090805190602001906109b99291906119e0565b506001600560008282546109cd91906127be565b925050819055508091505092915050565b6000600160008473ffffffffffffffffffffffffffffffffffffffff1673ffffffffffffffffffffffffffffffffffffffff16815260200190815260200160002060008373ffffffffffffffffffffffffffffffffffffffff1673ffffffffffffffffffffffffffffffffffffffff16815260200190815260200160002060009054906101000a900460ff16905092915050565b610a7a610be9565b73ffffffffffffffffffffffffffffffffffffffff168573ffffffffffffffffffffffffffffffffffffffff161480610ac05750610abf85610aba610be9565b6109de565b5b610aff576040517f08c379a0000000000000000000000000000000000000000000000000000000008152600401610af69061250a565b60405180910390fd5b610b0c858585858561127d565b5050505050565b60007f01ffc9a7000000000000000000000000000000000000000000000000000000007bffffffffffffffffffffffffffffffffffffffffffffffffffffffff1916827bffffffffffffffffffffffffffffffffffffffffffffffffffffffff1916149050919050565b60008073ffffffffffffffffffffffffffffffffffffffff166007600084815260200190815260200160002060009054906101000a900473ffffffffffffffffffffffffffffffffffffffff1673ffffffffffffffffffffffffffffffffffffffff1614159050919050565b600033905090565b8151835114610c35576040517f08c379a0000000000000000000000000000000000000000000000000000000008152600401610c2c906125ca565b60405180910390fd5b600073ffffffffffffffffffffffffffffffffffffffff168473ffffffffffffffffffffffffffffffffffffffff161415610ca5576040517f08c379a0000000000000000000000000000000000000000000000000000000008152600401610c9c9061252a565b60405180910390fd5b6000610caf610be9565b9050610cbf818787878787611519565b60005b8451811015610ebc576000858281518110610d06577f4e487b7100000000000000000000000000000000000000000000000000000000600052603260045260246000fd5b602002602001015190506000858381518110610d4b577f4e487b7100000000000000000000000000000000000000000000000000000000600052603260045260246000fd5b60200260200101519050600080600084815260200190815260200160002060008b73ffffffffffffffffffffffffffffffffffffffff1673ffffffffffffffffffffffffffffffffffffffff16815260200190815260200160002054905081811015610dec576040517f08c379a0000000000000000000000000000000000000000000000000000000008152600401610de39061256a565b60405180910390fd5b81810360008085815260200190815260200160002060008c73ffffffffffffffffffffffffffffffffffffffff1673ffffffffffffffffffffffffffffffffffffffff168152602001908152602001600020819055508160008085815260200190815260200160002060008b73ffffffffffffffffffffffffffffffffffffffff1673ffffffffffffffffffffffffffffffffffffffff1681526020019081526020016000206000828254610ea191906127be565b9250508190555050505080610eb5906129b8565b9050610cc2565b508473ffffffffffffffffffffffffffffffffffffffff168673ffffffffffffffffffffffffffffffffffffffff168273ffffffffffffffffffffffffffffffffffffffff167f4a39dc06d4c0dbc64b70af90fd698a233a518aa5d07e595d983b8c0526c8f7fb8787604051610f33929190612436565b60405180910390a4610f49818787878787611521565b610f57818787878787611529565b505050505050565b8173ffffffffffffffffffffffffffffffffffffffff168373ffffffffffffffffffffffffffffffffffffffff161415610fce576040517f08c379a0000000000000000000000000000000000000000000000000000000008152600401610fc59061258a565b60405180910390fd5b80600160008573ffffffffffffffffffffffffffffffffffffffff1673ffffffffffffffffffffffffffffffffffffffff16815260200190815260200160002060008473ffffffffffffffffffffffffffffffffffffffff1673ffffffffffffffffffffffffffffffffffffffff16815260200190815260200160002060006101000a81548160ff0219169083151502179055508173ffffffffffffffffffffffffffffffffffffffff168373ffffffffffffffffffffffffffffffffffffffff167f17307eab39ab6107e8899845ad3d59bd9653f200f220920489ca2b5937696c31836040516110bf919061246d565b60405180910390a3505050565b600073ffffffffffffffffffffffffffffffffffffffff168473ffffffffffffffffffffffffffffffffffffffff16141561113c576040517f08c379a0000000000000000000000000000000000000000000000000000000008152600401611133906125ea565b60405180910390fd5b6000611146610be9565b9050600061115385611710565b9050600061116085611710565b905061117183600089858589611519565b8460008088815260200190815260200160002060008973ffffffffffffffffffffffffffffffffffffffff1673ffffffffffffffffffffffffffffffffffffffff16815260200190815260200160002060008282546111d091906127be565b925050819055508673ffffffffffffffffffffffffffffffffffffffff16600073ffffffffffffffffffffffffffffffffffffffff168473ffffffffffffffffffffffffffffffffffffffff167fc3d58168c5ae7397731d063d5bbf3d657854427343f4c083240f7aacaa2d0f62898960405161124e929190612645565b60405180910390a461126583600089858589611521565b611274836000898989896117d6565b50505050505050565b600073ffffffffffffffffffffffffffffffffffffffff168473ffffffffffffffffffffffffffffffffffffffff1614156112ed576040517f08c379a00000000000000000000000000000000000000000000000000000000081526004016112e49061252a565b60405180910390fd5b60006112f7610be9565b9050600061130485611710565b9050600061131185611710565b9050611321838989858589611519565b600080600088815260200190815260200160002060008a73ffffffffffffffffffffffffffffffffffffffff1673ffffffffffffffffffffffffffffffffffffffff168152602001908152602001600020549050858110156113b8576040517f08c379a00000000000000000000000000000000000000000000000000000000081526004016113af9061256a565b60405180910390fd5b85810360008089815260200190815260200160002060008b73ffffffffffffffffffffffffffffffffffffffff1673ffffffffffffffffffffffffffffffffffffffff168152602001908152602001600020819055508560008089815260200190815260200160002060008a73ffffffffffffffffffffffffffffffffffffffff1673ffffffffffffffffffffffffffffffffffffffff168152602001908152602001600020600082825461146d91906127be565b925050819055508773ffffffffffffffffffffffffffffffffffffffff168973ffffffffffffffffffffffffffffffffffffffff168573ffffffffffffffffffffffffffffffffffffffff167fc3d58168c5ae7397731d063d5bbf3d657854427343f4c083240f7aacaa2d0f628a8a6040516114ea929190612645565b60405180910390a4611500848a8a86868a611521565b61150e848a8a8a8a8a6117d6565b505050505050505050565b505050505050565b505050505050565b6115488473ffffffffffffffffffffffffffffffffffffffff166119bd565b15611708578373ffffffffffffffffffffffffffffffffffffffff1663bc197c8187878686866040518663ffffffff1660e01b815260040161158e959493929190612329565b602060405180830381600087803b1580156115a857600080fd5b505af19250505080156115d957506040513d601f19601f820116820180604052508101906115d69190611fd3565b60015b61167f576115e5612abd565b806308c379a0141561164257506115fa612eb1565b806116055750611644565b806040517f08c379a00000000000000000000000000000000000000000000000000000000081526004016116399190612488565b60405180910390fd5b505b6040517f08c379a00000000000000000000000000000000000000000000000000000000081526004016116769061260a565b60405180910390fd5b63bc197c8160e01b7bffffffffffffffffffffffffffffffffffffffffffffffffffffffff1916817bffffffffffffffffffffffffffffffffffffffffffffffffffffffff191614611706576040517f08c379a00000000000000000000000000000000000000000000000000000000081526004016116fd906124aa565b60405180910390fd5b505b505050505050565b60606000600167ffffffffffffffff811115611755577f4e487b7100000000000000000000000000000000000000000000000000000000600052604160045260246000fd5b6040519080825280602002602001820160405280156117835781602001602082028036833780820191505090505b50905082816000815181106117c1577f4e487b7100000000000000000000000000000000000000000000000000000000600052603260045260246000fd5b60200260200101818152505080915050919050565b6117f58473ffffffffffffffffffffffffffffffffffffffff166119bd565b156119b5578373ffffffffffffffffffffffffffffffffffffffff1663f23a6e6187878686866040518663ffffffff1660e01b815260040161183b959493929190612391565b602060405180830381600087803b15801561185557600080fd5b505af192505050801561188657506040513d601f19601f820116820180604052508101906118839190611fd3565b60015b61192c57611892612abd565b806308c379a014156118ef57506118a7612eb1565b806118b257506118f1565b806040517f08c379a00000000000000000000000000000000000000000000000000000000081526004016118e69190612488565b60405180910390fd5b505b6040517f08c379a00000000000000000000000000000000000000000000000000000000081526004016119239061260a565b60405180910390fd5b63f23a6e6160e01b7bffffffffffffffffffffffffffffffffffffffffffffffffffffffff1916817bffffffffffffffffffffffffffffffffffffffffffffffffffffffff1916146119b3576040517f08c379a00000000000000000000000000000000000000000000000000000000081526004016119aa906124aa565b60405180910390fd5b505b505050505050565b6000808273ffffffffffffffffffffffffffffffffffffffff163b119050919050565b8280546119ec90612955565b90600052602060002090601f016020900481019282611a0e5760008555611a55565b82601f10611a2757805160ff1916838001178555611a55565b82800160010185558215611a55579182015b82811115611a54578251825591602001919060010190611a39565b5b509050611a629190611a66565b5090565b5b80821115611a7f576000816000905550600101611a67565b5090565b6000611a96611a9184612693565b61266e565b90508083825260208201905082856020860282011115611ab557600080fd5b60005b85811015611ae55781611acb8882611bd7565b845260208401935060208301925050600181019050611ab8565b5050509392505050565b6000611b02611afd846126bf565b61266e565b90508083825260208201905082856020860282011115611b2157600080fd5b60005b85811015611b515781611b378882611cd3565b845260208401935060208301925050600181019050611b24565b5050509392505050565b6000611b6e611b69846126eb565b61266e565b905082815260208101848484011115611b8657600080fd5b611b91848285612913565b509392505050565b6000611bac611ba78461271c565b61266e565b905082815260208101848484011115611bc457600080fd5b611bcf848285612913565b509392505050565b600081359050611be681612f47565b92915050565b600082601f830112611bfd57600080fd5b8135611c0d848260208601611a83565b91505092915050565b600082601f830112611c2757600080fd5b8135611c37848260208601611aef565b91505092915050565b600081359050611c4f81612f5e565b92915050565b600081359050611c6481612f75565b92915050565b600081519050611c7981612f75565b92915050565b600082601f830112611c9057600080fd5b8135611ca0848260208601611b5b565b91505092915050565b600082601f830112611cba57600080fd5b8135611cca848260208601611b99565b91505092915050565b600081359050611ce281612f8c565b92915050565b60008060408385031215611cfb57600080fd5b6000611d0985828601611bd7565b9250506020611d1a85828601611bd7565b9150509250929050565b600080600080600060a08688031215611d3c57600080fd5b6000611d4a88828901611bd7565b9550506020611d5b88828901611bd7565b945050604086013567ffffffffffffffff811115611d7857600080fd5b611d8488828901611c16565b935050606086013567ffffffffffffffff811115611da157600080fd5b611dad88828901611c16565b925050608086013567ffffffffffffffff811115611dca57600080fd5b611dd688828901611c7f565b9150509295509295909350565b600080600080600060a08688031215611dfb57600080fd5b6000611e0988828901611bd7565b9550506020611e1a88828901611bd7565b9450506040611e2b88828901611cd3565b9350506060611e3c88828901611cd3565b925050608086013567ffffffffffffffff811115611e5957600080fd5b611e6588828901611c7f565b9150509295509295909350565b60008060408385031215611e8557600080fd5b6000611e9385828601611bd7565b9250506020611ea485828601611c40565b9150509250929050565b60008060408385031215611ec157600080fd5b6000611ecf85828601611bd7565b925050602083013567ffffffffffffffff811115611eec57600080fd5b611ef885828601611ca9565b9150509250929050565b60008060408385031215611f1557600080fd5b6000611f2385828601611bd7565b9250506020611f3485828601611cd3565b9150509250929050565b60008060408385031215611f5157600080fd5b600083013567ffffffffffffffff811115611f6b57600080fd5b611f7785828601611bec565b925050602083013567ffffffffffffffff811115611f9457600080fd5b611fa085828601611c16565b9150509250929050565b600060208284031215611fbc57600080fd5b6000611fca84828501611c55565b91505092915050565b600060208284031215611fe557600080fd5b6000611ff384828501611c6a565b91505092915050565b60006020828403121561200e57600080fd5b600061201c84828501611cd3565b91505092915050565b6000806040838503121561203857600080fd5b600061204685828601611cd3565b925050602061205785828601611cd3565b9150509250929050565b600061206d838361230b565b60208301905092915050565b6120828161289f565b82525050565b60006120938261275d565b61209d818561278b565b93506120a88361274d565b8060005b838110156120d95781516120c08882612061565b97506120cb8361277e565b9250506001810190506120ac565b5085935050505092915050565b6120ef816128b1565b82525050565b600061210082612768565b61210a818561279c565b935061211a818560208601612922565b61212381612adf565b840191505092915050565b600061213982612773565b61214381856127ad565b9350612153818560208601612922565b61215c81612adf565b840191505092915050565b60006121746028836127ad565b915061217f82612afd565b604082019050919050565b6000612197602f836127ad565b91506121a282612b4c565b604082019050919050565b60006121ba602a836127ad565b91506121c582612b9b565b604082019050919050565b60006121dd602e836127ad565b91506121e882612bea565b604082019050919050565b60006122006025836127ad565b915061220b82612c39565b604082019050919050565b6000612223603f836127ad565b915061222e82612c88565b604082019050919050565b6000612246602a836127ad565b915061225182612cd7565b604082019050919050565b60006122696029836127ad565b915061227482612d26565b604082019050919050565b600061228c6029836127ad565b915061229782612d75565b604082019050919050565b60006122af6028836127ad565b91506122ba82612dc4565b604082019050919050565b60006122d26021836127ad565b91506122dd82612e13565b604082019050919050565b60006122f56034836127ad565b915061230082612e62565b604082019050919050565b61231481612909565b82525050565b61232381612909565b82525050565b600060a08201905061233e6000830188612079565b61234b6020830187612079565b818103604083015261235d8186612088565b905081810360608301526123718185612088565b9050818103608083015261238581846120f5565b90509695505050505050565b600060a0820190506123a66000830188612079565b6123b36020830187612079565b6123c0604083018661231a565b6123cd606083018561231a565b81810360808301526123df81846120f5565b90509695505050505050565b60006040820190506124006000830185612079565b61240d602083018461231a565b9392505050565b6000602082019050818103600083015261242e8184612088565b905092915050565b600060408201905081810360008301526124508185612088565b905081810360208301526124648184612088565b90509392505050565b600060208201905061248260008301846120e6565b92915050565b600060208201905081810360008301526124a2818461212e565b905092915050565b600060208201905081810360008301526124c381612167565b9050919050565b600060208201905081810360008301526124e38161218a565b9050919050565b60006020820190508181036000830152612503816121ad565b9050919050565b60006020820190508181036000830152612523816121d0565b9050919050565b60006020820190508181036000830152612543816121f3565b9050919050565b6000602082019050818103600083015261256381612216565b9050919050565b6000602082019050818103600083015261258381612239565b9050919050565b600060208201905081810360008301526125a38161225c565b9050919050565b600060208201905081810360008301526125c38161227f565b9050919050565b600060208201905081810360008301526125e3816122a2565b9050919050565b60006020820190508181036000830152612603816122c5565b9050919050565b60006020820190508181036000830152612623816122e8565b9050919050565b600060208201905061263f600083018461231a565b92915050565b600060408201905061265a600083018561231a565b612667602083018461231a565b9392505050565b6000612678612689565b90506126848282612987565b919050565b6000604051905090565b600067ffffffffffffffff8211156126ae576126ad612a8e565b5b602082029050602081019050919050565b600067ffffffffffffffff8211156126da576126d9612a8e565b5b602082029050602081019050919050565b600067ffffffffffffffff82111561270657612705612a8e565b5b61270f82612adf565b9050602081019050919050565b600067ffffffffffffffff82111561273757612736612a8e565b5b61274082612adf565b9050602081019050919050565b6000819050602082019050919050565b600081519050919050565b600081519050919050565b600081519050919050565b6000602082019050919050565b600082825260208201905092915050565b600082825260208201905092915050565b600082825260208201905092915050565b60006127c982612909565b91506127d483612909565b9250827fffffffffffffffffffffffffffffffffffffffffffffffffffffffffffffffff0382111561280957612808612a01565b5b828201905092915050565b600061281f82612909565b915061282a83612909565b92508261283a57612839612a30565b5b828204905092915050565b600061285082612909565b915061285b83612909565b9250817fffffffffffffffffffffffffffffffffffffffffffffffffffffffffffffffff048311821515161561289457612893612a01565b5b828202905092915050565b60006128aa826128e9565b9050919050565b60008115159050919050565b60007fffffffff0000000000000000000000000000000000000000000000000000000082169050919050565b600073ffffffffffffffffffffffffffffffffffffffff82169050919050565b6000819050919050565b82818337600083830152505050565b60005b83811015612940578082015181840152602081019050612925565b8381111561294f576000848401525b50505050565b6000600282049050600182168061296d57607f821691505b6020821081141561298157612980612a5f565b5b50919050565b61299082612adf565b810181811067ffffffffffffffff821117156129af576129ae612a8e565b5b80604052505050565b60006129c382612909565b91507fffffffffffffffffffffffffffffffffffffffffffffffffffffffffffffffff8214156129f6576129f5612a01565b5b600182019050919050565b7f4e487b7100000000000000000000000000000000000000000000000000000000600052601160045260246000fd5b7f4e487b7100000000000000000000000000000000000000000000000000000000600052601260045260246000fd5b7f4e487b7100000000000000000000000000000000000000000000000000000000600052602260045260246000fd5b7f4e487b7100000000000000000000000000000000000000000000000000000000600052604160045260246000fd5b600060033d1115612adc5760046000803e612ad9600051612af0565b90505b90565b6000601f19601f8301169050919050565b60008160e01c9050919050565b7f455243313135353a204552433131353552656365697665722072656a6563746560008201527f6420746f6b656e73000000000000000000000000000000000000000000000000602082015250565b7f414947656e6572617465644e46543a2055524920717565727920666f72206e6f60008201527f6e6578697374656e7420746f6b656e0000000000000000000000000000000000602082015250565b7f455243313135353a2061646472657373207a65726f206973206e6f742061207660008201527f616c6964206f776e657200000000000000000000000000000000000000000000602082015250565b7f455243313135353a2063616c6c6572206973206e6f7420746f6b656e206f776e60008201527f6572206f7220617070726f766564000000000000000000000000000000000000602082015250565b7f455243313135353a207472616e7366657220746f20746865207a65726f20616460008201527f6472657373000000000000000000000000000000000000000000000000000000602082015250565b7f414947656e6572617465644e46543a204f6e6c792074686520636f6e7472616360008201527f74206f776e65722063616e2063616c6c20746869732066756e6374696f6e2e00602082015250565b7f455243313135353a20696e73756666696369656e742062616c616e636520666f60008201527f72207472616e7366657200000000000000000000000000000000000000000000602082015250565b7f455243313135353a2073657474696e6720617070726f76616c2073746174757360008201527f20666f722073656c660000000000000000000000000000000000000000000000602082015250565b7f455243313135353a206163636f756e747320616e6420696473206c656e67746860008201527f206d69736d617463680000000000000000000000000000000000000000000000602082015250565b7f455243313135353a2069647320616e6420616d6f756e7473206c656e6774682060008201527f6d69736d61746368000000000000000000000000000000000000000000000000602082015250565b7f455243313135353a206d696e7420746f20746865207a65726f2061646472657360008201527f7300000000000000000000000000000000000000000000000000000000000000602082015250565b7f455243313135353a207472616e7366657220746f206e6f6e2d4552433131353560008201527f526563656976657220696d706c656d656e746572000000000000000000000000602082015250565b600060443d1015612ec157612f44565b612ec9612689565b60043d036004823e80513d602482011167ffffffffffffffff82111715612ef1575050612f44565b808201805167ffffffffffffffff811115612f0f5750505050612f44565b80602083010160043d038501811115612f2c575050505050612f44565b612f3b82602001850186612987565b82955050505050505b90565b612f508161289f565b8114612f5b57600080fd5b50565b612f67816128b1565b8114612f7257600080fd5b50565b612f7e816128bd565b8114612f8957600080fd5b50565b612f9581612909565b8114612fa057600080fd5b5056fea264697066735822122063374a4cffe121fc79b909d6d0e5d1682c751de6eb141a81a3404bee1ce7067f64736f6c63430008010033",
  "linkReferences": {},
  "deployedLinkReferences": {}
}